          date                                                                                                  description                  txn_id                                                                                              old_description     amount    type  bank
1   2024-08-01                                                                                          SALARY FOR JUL-2024        0000407317042777                                                                                          SALARY FOR JUL-2024  111468.00  credit  HDFC
2   2024-08-02                                                                  ATW-416021XXXXXX3309-S1ACBL06-BANGALORE-URB        0000000000006010                                                                  ATW-416021XXXXXX3309-S1ACBL06-BANGALORE-URB   -5000.00   debit  HDFC
3   2024-08-02                                                                        POS 416021XXXXXX3309 SULTHAN GOLD PRI        0000000000000790                                                                        POS 416021XXXXXX3309 SULTHAN GOLD PRI  -12700.00   debit  HDFC
4   2024-08-06                      NEFT DR-ICIC0000401-MOHAMMED ARBAAZ SABER-NETBANK, MUM-N219243191633297-TOP UP AND GOLD        N219243191633297                      NEFT DR-ICIC0000401-MOHAMMED ARBAAZ SABER-NETBANK, MUM-N219243191633297-TOP UP AND GOLD  -25000.00   debit  HDFC
5   2024-08-20                               NEFT DR-ICIC0000401-MOHAMMED ARBAAZ SABER-NETBANK, MUM-N233243217049429-TOP UP        N233243217049429                               NEFT DR-ICIC0000401-MOHAMMED ARBAAZ SABER-NETBANK, MUM-N233243217049429-TOP UP  -10000.00   debit  HDFC
6   2024-08-26                                                                                                       PEARLS        0000423928431944                       UPI-M POONAMCHAND JEWELL-MPOONAMCHANDJEWELLER.67107386@HDFCBANK-NA-423928431944-PEARLS   -4000.00   debit  HDFC
7   2024-08-28                               NEFT DR-ICIC0000401-MOHAMMED ARBAAZ SABER-NETBANK, MUM-N241243230510052-TOP UP        N241243230510052                               NEFT DR-ICIC0000401-MOHAMMED ARBAAZ SABER-NETBANK, MUM-N241243230510052-TOP UP  -15000.00   debit  HDFC
8   2024-09-01                                                                                          SALARY FOR AUG-2024        0000408300779836                                                                                          SALARY FOR AUG-2024   75244.00  credit  HDFC
9   2024-09-03                                             IMPS-424718371876-MOHAMMED ARBAAZ SABER-ICIC-XXXXXXXX7322-STOCKS        0000424718371876                                             IMPS-424718371876-MOHAMMED ARBAAZ SABER-ICIC-XXXXXXXX7322-STOCKS  -80000.00   debit  HDFC
10  2024-09-11                     IMPS-425500734337-CASHFREE PAYMENTS IN-IDFB-XXXXXXX6991-HYPERVERGETECHNOLOGIESPRIVATELIM        0000425500734337                     IMPS-425500734337-CASHFREE PAYMENTS IN-IDFB-XXXXXXX6991-HYPERVERGETECHNOLOGIESPRIVATELIM       1.00  credit  HDFC
11  2024-09-16                                        UPI-ANGEL LTD NSE-ANGELONENSE@HDFCBANK-NA-426021473387-PAYINGANGELONE        0000426021473387                                        UPI-ANGEL LTD NSE-ANGELONENSE@HDFCBANK-NA-426021473387-PAYINGANGELONE   -9000.00   debit  HDFC
12  2024-09-18                             UPI-ANGEL LTD NSE-ANGELONENSE@HDFCBANK-HDFC0000001-426229346660-PAYING ANGEL ONE        0000426229346660                             UPI-ANGEL LTD NSE-ANGELONENSE@HDFCBANK-HDFC0000001-426229346660-PAYING ANGEL ONE  -13500.00   debit  HDFC
13  2024-09-30                          UPI-MOHAMMED ARBAAZ SABE-9573896317@IBL-ICIC0000401-427451211539-PAYMENT FROM PHONE        0000427451211539                          UPI-MOHAMMED ARBAAZ SABE-9573896317@IBL-ICIC0000401-427451211539-PAYMENT FROM PHONE   14784.00  credit  HDFC
14  2024-10-01                                                                               INTEREST PAID TILL 30-SEP-2024         000000000000000                                                                               INTEREST PAID TILL 30-SEP-2024     245.00  credit  HDFC
15  2024-10-01                                                                                          SALARY FOR SEP-2024        0000409306481605                                                                                          SALARY FOR SEP-2024   80494.00  credit  HDFC
16  2024-10-01                        IMPS-427523427231-AAHCB4709MPAY10SER-UTIB-XXXXXXXXXXX9444-PAY10SERVICESPRIVATELIMITED        0000427523427231                        IMPS-427523427231-AAHCB4709MPAY10SER-UTIB-XXXXXXXXXXX9444-PAY10SERVICESPRIVATELIMITED    8802.00  credit  HDFC
17  2024-10-02                        IMPS-427613481815-AAHCB4709MPAY10SER-UTIB-XXXXXXXXXXX9444-PAY10SERVICESPRIVATELIMITED        0000427613481815                        IMPS-427613481815-AAHCB4709MPAY10SER-UTIB-XXXXXXXXXXX9444-PAY10SERVICESPRIVATELIMITED    8799.00  credit  HDFC
18  2024-10-05                                                                                    ANGEL ONE LIMI-1036987669        0000410054625975                                                                                    ANGEL ONE LIMI-1036987669   22500.00  credit  HDFC
19  2024-10-18                           UPI-RIGHT CHOICE TRADING-AURASTYLISH@YESBANK-YESB0000016-429290945714-PAY WITH UPI        0000429290945714                           UPI-RIGHT CHOICE TRADING-AURASTYLISH@YESBANK-YESB0000016-429290945714-PAY WITH UPI  -44661.00   debit  HDFC
20  2024-11-27                                                                                                    GROCERIES        0000433297029283                                                       UPI-AKBAR-PAYTMQR5CH8DQ@PTYS-NA-433297029283-GROCERIES     -30.00   debit  HDFC
21  2024-11-29                                                                            ME DC SI 416021XXXXXX3309 NETFLIX        0000433413136037                                                                            ME DC SI 416021XXXXXX3309 NETFLIX    -649.00   debit  HDFC
22  2024-11-29                                                                             CRV POS 416021******3309 NETFLIX         000000000000000                                                                             CRV POS 416021******3309 NETFLIX       2.00  credit  HDFC
23  2024-12-01                                                                                          SALARY FOR NOV-2024        0000411282087237                                                                                          SALARY FOR NOV-2024   81194.00  credit  HDFC
24  2024-12-01                                                                                                  BEYOND BRUG        0000433613628987                                        UPI-BYND COURTYARD LLP-POS.11313857@INDUS-NA-433613628987-BEYOND BRUG   -1575.00   debit  HDFC
25  2024-12-02                                                                                                      VEGGIES        0000433721197049                                                UPI-A L M D VEGETABLES-Q181919503@YBL-NA-433721197049-VEGGIES    -120.00   debit  HDFC
26  2024-12-02                                UPI-BI BI AYESHA-BHARATPE.90069115085@FBPE-NA-433721221882-PAY TO BHARATPE ME        0000433721221882                                UPI-BI BI AYESHA-BHARATPE.90069115085@FBPE-NA-433721221882-PAY TO BHARATPE ME    -260.00   debit  HDFC
27  2024-12-02                                                                                                         EGGS        0000433721236697                                                        UPI-SYED   SHABAZ-Q334202708@YBL-NA-433721236697-EGGS    -195.00   debit  HDFC
28  2024-12-02                                                                                                   STATIONARY        0000433722167176                                                 UPI-KABEER  ULLA-9886152948-2@IBL-NA-433722167176-STATIONARY     -35.00   debit  HDFC
29  2024-12-03                                                                                                         FOOD        0000433824623429                                                 UPI-G SHASHIKALA N MAIYY-Q239352826@YBL-NA-433824623429-FOOD    -150.00   debit  HDFC
30  2024-12-04                                                                                                      VEGGIES        0000433927987616                                                UPI-A L M D VEGETABLES-Q181919503@YBL-NA-433927987616-VEGGIES     -20.00   debit  HDFC
31  2024-12-04                                                                                                      CHICKEN        0000433929426221                                                UPI-FAYAQ ULLA SHARIFF-Q966259036@YBL-NA-433929426221-CHICKEN     -95.00   debit  HDFC
32  2024-12-05                                                                                                      CHICKEN        0000434035801509                                                 UPI-AL BAIK-ALBAIK.63084636@HDFCBANK-NA-434035801509-CHICKEN    -281.00   debit  HDFC
33  2024-12-06                                        UPI-ANGEL LTD NSE-ANGELONENSE@HDFCBANK-NA-434137679532-PAYINGANGELONE        0000434137679532                                        UPI-ANGEL LTD NSE-ANGELONENSE@HDFCBANK-NA-434137679532-PAYINGANGELONE   -6000.00   debit  HDFC
34  2024-12-07                                                                                                       PETROL        0000434242615774                                                      UPI-KIRAN H A-PAYTMQR5DH3D4@PTYS-NA-434242615774-PETROL    -512.54   debit  HDFC
35  2024-12-07                                                                                                        YEAST        0000434242632450                                                 UPI-M K SUBAIR-PAYTMQRRD8VO9W009@PAYTM-NA-434242632450-YEAST     -50.00   debit  HDFC
36  2024-12-07                                                                        POS 416021XXXXXX3309 APOLLO PHARMACIE        0000434220712964                                                                        POS 416021XXXXXX3309 APOLLO PHARMACIE    -220.00   debit  HDFC
37  2024-12-08                                                                        POS 416021XXXXXX3309 AMAZON GIFT CARD        0000434314377873                                                                        POS 416021XXXXXX3309 AMAZON GIFT CARD    -709.00   debit  HDFC
38  2024-12-09                                                                                                       FLOWER        0000434450957074                                                    UPI-KRISHNAVENI-PAYTMQR5W2390@PTYS-NA-434450957074-FLOWER     -60.00   debit  HDFC
39  2024-12-10                                                                                               CHICKEN BREAST        0000434552877497                                         UPI-FAYAQ ULLA SHARIFF-Q122828579@YBL-NA-434552877497-CHICKEN BREAST     -90.00   debit  HDFC
40  2024-12-10                                                                                                    GROCERIES        0000434553235337                                              UPI-A L M D VEGETABLES-Q248353038@YBL-NA-434553235337-GROCERIES    -175.00   debit  HDFC
41  2024-12-10                                                                                                    GROCERIES        0000434553275564                                              UPI-A L M D VEGETABLES-Q297253553@YBL-NA-434553275564-GROCERIES     -30.00   debit  HDFC
42  2024-12-12        UPI-INDIAN RAILWAY CATER-INDIANRAILWAYCATERIYIM.RZP@MAIRTEL-AIRP0000001-434701010125-PAY VIA RAZORPAY        0000434701010125        UPI-INDIAN RAILWAY CATER-INDIANRAILWAYCATERIYIM.RZP@MAIRTEL-AIRP0000001-434701010125-PAY VIA RAZORPAY    -793.60   debit  HDFC
43  2024-12-14                                                                                                         FOOD        0000434969748709                                                UPI-SIDDHESH KARTHIC-9606277733@HDFCBANK-NA-434969748709-FOOD    -552.00   debit  HDFC
44  2024-12-14                                                                                              MINIGOLFMADNESS        0000434919470618            UPI-MINI GOLF MADNESS-MINIGOLFMADNESS422597.RZP@RXAIRTEL-AIRP0000011-434919470618-MINIGOLFMADNESS   -1198.00   debit  HDFC
45  2024-12-15                                                                                                         FOOD        0000435075486174                                                       UPI-AMREEN TAJ-PAYTMQR61DFJV@PTYS-NA-435075486174-FOOD    -205.00   debit  HDFC
46  2024-12-15                                                                                                     SHEERMAL        0000435076732542                                         UPI-MOHAMMED KABEER PASH-PAYTMQR5XFO3V@PTYS-NA-435076732542-SHEERMAL     -90.00   debit  HDFC
47  2024-12-16                                                                                                    GROCERIES        0000435178106059                                                  UPI-NASRIN TAJ-PAYTMQR5ETSXC@PTYS-NA-435178106059-GROCERIES     -20.00   debit  HDFC
48  2024-12-16                                                                                                         FOOD        0000435180427578                                                 UPI-MEGHANA FOODS INDIRA-Q405092903@YBL-NA-435180427578-FOOD    -900.00   debit  HDFC
49  2024-12-17                                                                                                          GAS        0000435284627662                                               UPI-JOHN BHASKAR-JOHNBASKARSJOHN-1@OKICICI-NA-435284627662-GAS    -850.00   debit  HDFC
50  2024-12-17                                                                                                         FOOD        0000435285591986                                            UPI-STRA AMBUR BIRYANI A-PAYTMQR10MBHK@PAYTM-NA-435285591986-FOOD     -40.00   debit  HDFC
51  2024-12-17                                                                                           GROCERIES AND BOOK        0000435285664046                                UPI-AVENUE SUPERMARTS LT-PINEDMARTKA@ICICI-NA-435285664046-GROCERIES AND BOOK    -496.50   debit  HDFC
52  2024-12-17                                                                                           GENERATING DYNAMIC        0000435285685190           UPI-AVENUE FOOD PLAZA PV-AVENUEFOODPLAZAPVTLT.42422368@HDFCBANK-NA-435285685190-GENERATING DYNAMIC     -35.00   debit  HDFC
53  2024-12-17                                                                                                         FOOD        0000435285722553                                             UPI-STRA AMBUR BIRYANI A-PAYTMQR61DPV3@PTYS-NA-435285722553-FOOD     -40.00   debit  HDFC
54  2024-12-18                                                                                           OIDBR000BKHTE8I@RE        0000435327813342                 UPI-JIO PREPAID RECHARGE-PAYTM-JIOMOBILITY@PTYBL-YESB0PTMUPI-435327813342-OIDBR000BKHTE8I@RE    -299.00   debit  HDFC
55  2024-12-18                                                                                                         FOOD        0000435387920252                                                        UPI-ELANGO R-PAYTMQR10F7MB@PAYTM-NA-435387920252-FOOD    -180.00   debit  HDFC
56  2024-12-18                                                                                           INDIANRAILWAYCATER        0000435311289286      UPI-INDIAN RAILWAY CATER-INDIANRAILWAYCA848104.RZP@RXAIRTEL-AIRP0000011-435311289286-INDIANRAILWAYCATER    -407.25   debit  HDFC
57  2024-12-18                                                                                           SAYED BHAI TRAIN T        0000225687217200                        UPI-SAYED ULFATH HUSSAIN-7829390702-2@AXL-CNRB0000033-225687217200-SAYED BHAI TRAIN T     407.25  credit  HDFC
58  2024-12-20                                       UPI-N  USHA-8073545525@YBL-SBIN0004926-001677109096-PAYMENT FROM PHONE        0000001677109096                                       UPI-N  USHA-8073545525@YBL-SBIN0004926-001677109096-PAYMENT FROM PHONE     500.00  credit  HDFC
59  2024-12-20                              NEFT DR-ICIC0001769-QURRATH UL AIN NUZHATH-NETBANK, MUM-N355243464871319-MOTHER        N355243464871319                              NEFT DR-ICIC0001769-QURRATH UL AIN NUZHATH-NETBANK, MUM-N355243464871319-MOTHER  -25000.00   debit  HDFC
60  2024-12-20                                                                                                    GROCERIES        0000435500894455                                             UPI-HOPCOMS 76-PAYTMQR1DYP3VT88P@PAYTM-NA-435500894455-GROCERIES     -20.00   debit  HDFC
61  2024-12-20                                                                                                      OUTSIDE        0000435501336845                                                   UPI-BROASTKHAN-PAYTM-80087713@PTYS-NA-435501336845-OUTSIDE    -210.00   debit  HDFC
62  2024-12-20                                                                                                      OUTSIDE        0000435501672875                                         UPI-SMOKY DOCKY-VYAPAR.169048628271@HDFCBANK-NA-435501672875-OUTSIDE    -449.00   debit  HDFC
63  2024-12-20                                                                                                         FUEL        0000435501866213                                                 UPI-PUMP 3 GCHINNAPPA RE-Q491501974@YBL-NA-435501866213-FUEL    -110.00   debit  HDFC
64  2024-12-21      UPI-INDIAN RAILWAY CATER-INDIANRAILWAYCATERIYIM.RZP@MAIRTEL-AIRP0000001-435617978139-REFUND FOR UPI RRN        0000435617978139      UPI-INDIAN RAILWAY CATER-INDIANRAILWAYCATERIYIM.RZP@MAIRTEL-AIRP0000001-435617978139-REFUND FOR UPI RRN     705.00  credit  HDFC
65  2024-12-21                                                                                                    GROCERIES        0000435606956444                                        UPI-WELCOME PROVISION ST-PAYTMQR5WQ97G@PTYS-NA-435606956444-GROCERIES    -152.00   debit  HDFC
66  2024-12-22                                                                                                    GROCERIES        0000435708686868                                        UPI-WELCOME PROVISION ST-PAYTMQR5WQ97G@PTYS-NA-435708686868-GROCERIES     -68.00   debit  HDFC
67  2024-12-22                                                                                                         FUEL        0000435709885409                                             UPI-BOWRING SERVICE STAT-PAYTMQR5DB1WT@PTYS-NA-435709885409-FUEL    -100.00   debit  HDFC
68  2024-12-22                                                                                                      OUTSIDE        0000435710000565                                             UPI-BOBA TREE-BOBATREE.69357284@HDFCBANK-NA-435710000565-OUTSIDE    -263.00   debit  HDFC
69  2024-12-22                                                                                           GENERATING DYNAMIC        0000435710967423                                     UPI-KEBAPCI-KEBAPCI.42532786@HDFCBANK-NA-435710967423-GENERATING DYNAMIC   -2465.00   debit  HDFC
70  2024-12-23                                                                                                      CHARITY        0000435830911509                                        UPI-RAHEEMA RAFATH  -ALTAFZABI@OKSBI-SBIN0040374-435830911509-CHARITY   -1000.00   debit  HDFC
71  2024-12-24                                 UPI-GEDDIT CONVENIENCE P-GEDDITZEPTO.BDPG@ICICI-ICIC0DC0099-435941508795-UPI        0000435941508795                                 UPI-GEDDIT CONVENIENCE P-GEDDITZEPTO.BDPG@ICICI-ICIC0DC0099-435941508795-UPI    -182.14   debit  HDFC
72  2024-12-24            UPI-MALABAR GOLD PVT LTD-MALABARGOLDPVTLTD.RZP@AXISBANK-UTIB0000100-474852533594-PAY VIA RAZORPAY        0000474852533594            UPI-MALABAR GOLD PVT LTD-MALABARGOLDPVTLTD.RZP@AXISBANK-UTIB0000100-474852533594-PAY VIA RAZORPAY  -10000.00   debit  HDFC
73  2024-12-24                                             UPI-ZEPTONOW-ZEPTONOW.ESBZ@HDFCBANK-HDFC0001794-435954057361-UPI        0000435954057361                                             UPI-ZEPTONOW-ZEPTONOW.ESBZ@HDFCBANK-HDFC0001794-435954057361-UPI    -364.14   debit  HDFC
74  2024-12-24                                                                                                   FOR PANDIT        0000435954177795                                  UPI-SHASHI KIRAN-SHASHI.YOURS-1@OKICICI-ICIC0000252-435954177795-FOR PANDIT    -500.00   debit  HDFC
75  2024-12-24                                        UPI-MOHD  JAMIL-MOHAMMEDJAMEEL2412@OKSBI-SBIN0008189-435965897010-UPI        0000435965897010                                        UPI-MOHD  JAMIL-MOHAMMEDJAMEEL2412@OKSBI-SBIN0008189-435965897010-UPI   -1000.00   debit  HDFC
76  2024-12-24                                              REV-UPI-50100738711936-ARBAAZFB26-1@OKHDFCBANK-435965897010-UPI        0000435965897010                                              REV-UPI-50100738711936-ARBAAZFB26-1@OKHDFCBANK-435965897010-UPI    1000.00  credit  HDFC
77  2024-12-24                                        UPI-MOHD  JAMIL-MOHAMMEDJAMEEL2412@OKSBI-SBIN0008189-435966376602-UPI        0000435966376602                                        UPI-MOHD  JAMIL-MOHAMMEDJAMEEL2412@OKSBI-SBIN0008189-435966376602-UPI   -1000.00   debit  HDFC
78  2024-12-25                                          UPI-SUHEL PASHA-SIGNDESIGN74-1@OKICICI-CNRB0000033-436089745792-UPI        0000436089745792                                          UPI-SUHEL PASHA-SIGNDESIGN74-1@OKICICI-CNRB0000033-436089745792-UPI    -450.00   debit  HDFC
79  2024-12-26                                                                                                    GROCERIES        0000436128393644                                     UPI-A L M D VEGETABLES-Q248353038@YBL-YESB0YBLUPI-436128393644-GROCERIES     -50.00   debit  HDFC
80  2024-12-26                                        UPI-MOHD  JAMIL-MOHAMMEDJAMEEL2412@OKSBI-SBIN0008189-436136522499-UPI        0000436136522499                                        UPI-MOHD  JAMIL-MOHAMMEDJAMEEL2412@OKSBI-SBIN0008189-436136522499-UPI    1000.00  credit  HDFC
81  2024-12-26                                                                                                    GROCERIES        0000436163305154                               UPI-MUHAMMED ABDUL JALEE-PAYTMQR5MUGOQ@PTYS-YESB0PTMUPI-436163305154-GROCERIES     -70.00   debit  HDFC
82  2024-12-26                                                                                                      OUTSIDE        0000436163981024                             UPI-SYED ZAMEER-BAJAJPAY.6879729.04984714@INDUS-INDB0MERCHA-436163981024-OUTSIDE    -350.00   debit  HDFC
83  2024-12-27                                                                            ME DC SI 416021XXXXXX3309 NETFLIX        0000436102698546                                                                            ME DC SI 416021XXXXXX3309 NETFLIX    -649.00   debit  HDFC
84  2024-12-27                                                                                                    GROCERIES        0000436283684010                                  UPI-CHANDRAKALA BANDE-PAYTMQR5DL0U2@PTYS-YESB0PTMUPI-436283684010-GROCERIES     -50.00   debit  HDFC
85  2024-12-28                                                                                                    GROCERIES        0000436312495049                                   UPI-RADHAKRISHNAN MAYAMO-Q075876209@YBL-YESB0YBLUPI-436312495049-GROCERIES    -120.00   debit  HDFC
86  2024-12-28                                                                                                YELAGIRI STAY        0000436313256545                               UPI-BARNABAS MOSES  A  J-9884003193@AXL-SBIN0006711-436313256545-YELAGIRI STAY   -5000.00   debit  HDFC
87  2024-12-28                                            UPI-MUNEER SWEETS-PAYTMQR5EVSTW@PTYS-YESB0PTMUPI-436325640424-UPI        0000436325640424                                            UPI-MUNEER SWEETS-PAYTMQR5EVSTW@PTYS-YESB0PTMUPI-436325640424-UPI     -40.00   debit  HDFC
88  2024-12-29                                         UPI-MURUGAN IDLI SHOP  V-Q021825439@YBL-YESB0YBLUPI-436458492508-UPI        0000436458492508                                         UPI-MURUGAN IDLI SHOP  V-Q021825439@YBL-YESB0YBLUPI-436458492508-UPI     -75.00   debit  HDFC
89  2025-01-01                                                                               INTEREST PAID TILL 31-DEC-2024         000000000000000                                                                               INTEREST PAID TILL 31-DEC-2024    1235.00  credit  HDFC
90  2025-01-01                                                                                          SALARY FOR DEC-2024        0000412305442697                                                                                          SALARY FOR DEC-2024   81874.00  credit  HDFC
91  2025-01-01                              UPI-ANGEL ONE LIMITED-ANGELONENSE@ICICI-ICIC0DC0099-536775650296-PAYINGANGELONE        0000536775650296                              UPI-ANGEL ONE LIMITED-ANGELONENSE@ICICI-ICIC0DC0099-536775650296-PAYINGANGELONE  -12000.00   debit  HDFC
92  2025-01-02                              UPI-ANGEL ONE LIMITED-ANGELONENSE@ICICI-ICIC0DC0099-500249656752-PAYINGANGELONE        0000500249656752                              UPI-ANGEL ONE LIMITED-ANGELONENSE@ICICI-ICIC0DC0099-500249656752-PAYINGANGELONE  -10000.00   debit  HDFC
93  2025-01-02                              UPI-ANGEL ONE LIMITED-ANGELONENSE@ICICI-ICIC0DC0099-500249666734-PAYINGANGELONE        0000500249666734                              UPI-ANGEL ONE LIMITED-ANGELONENSE@ICICI-ICIC0DC0099-500249666734-PAYINGANGELONE   -1000.00   debit  HDFC
94  2025-01-02              UPI-MALABAR GOLD PVT LTD-MALABARGOLDPVTLTD.RZP@AXISBANK-UTIB0000100-500249760990-PAYVIARAZORPAY        0000500249760990              UPI-MALABAR GOLD PVT LTD-MALABARGOLDPVTLTD.RZP@AXISBANK-UTIB0000100-500249760990-PAYVIARAZORPAY  -10000.00   debit  HDFC
95  2025-01-02                                                                        POS 416021XXXXXX3309 AMAZON PAY INDIA        0000500216589234                                                                        POS 416021XXXXXX3309 AMAZON PAY INDIA   -1313.00   debit  HDFC
96  2025-01-03                                             UPI-MOHAMMAD  ZUBAIR-Q604160105@YBL-YESB0YBLUPI-500325825533-UPI        0000500325825533                                             UPI-MOHAMMAD  ZUBAIR-Q604160105@YBL-YESB0YBLUPI-500325825533-UPI     -79.00   debit  HDFC
97  2025-01-03                                             UPI-MOHAMMAD  ZUBAIR-Q604160105@YBL-YESB0YBLUPI-500327769022-UPI        0000500327769022                                             UPI-MOHAMMAD  ZUBAIR-Q604160105@YBL-YESB0YBLUPI-500327769022-UPI    -345.00   debit  HDFC
98  2025-01-03                                                                                                      CHICKEN        0000500328890181                                       UPI-FAYAQ ULLA SHARIFF-Q543368046@YBL-YESB0YBLUPI-500328890181-CHICKEN    -240.00   debit  HDFC
99  2025-01-04                                                                                    ANGEL ONE LIMI-1040413590        0000501045867792                                                                                    ANGEL ONE LIMI-1040413590     613.58  credit  HDFC
100 2025-01-04                                                                                                    GROCERIES        0000500452027624                                        UPI-MAHBOOB  PHASHA-Q378157141@YBL-YESB0YBLUPI-500452027624-GROCERIES    -100.00   debit  HDFC
101 2025-01-04                          UPI-LAKEVIEW MILKBAR-LAKEVIEWMILKBAR.64034199@HDFCBANK-HDFC0000001-500463283824-UPI        0000500463283824                          UPI-LAKEVIEW MILKBAR-LAKEVIEWMILKBAR.64034199@HDFCBANK-HDFC0000001-500463283824-UPI    -638.00   debit  HDFC
102 2025-01-05                                                                                                         FUEL        0000500586674453                                     UPI-EAST END SERVICE STN-PAYTM-208086@PTYS-YESB0PTMUPI-500586674453-FUEL   -3700.00   debit  HDFC
103 2025-01-05                                               UPI-IRCTC UTS-PAYTM-8796946@PTYBL-YESB0PTMUPI-500586701600-UPI        0000500586701600                                               UPI-IRCTC UTS-PAYTM-8796946@PTYBL-YESB0PTMUPI-500586701600-UPI     -10.00   debit  HDFC
104 2025-01-05                                                                                                    GROCERIES        0000500515955318                                           UPI-RAMESH KUMAR-Q559456426@YBL-YESB0YBLUPI-500515955318-GROCERIES    -100.00   debit  HDFC
105 2025-01-05                                                                                                      OUTSIDE        0000500521680817                                         UPI-MOHAMMAD  ZUBAIR-Q604160105@YBL-YESB0YBLUPI-500521680817-OUTSIDE    -219.00   debit  HDFC
106 2025-01-08                     UPI-NIRAJKUMARSHAW-BHARATPE.90072250582@FBPE-FDRL0001382-500853698837-PAY TO BHARATPE ME        0000500853698837                     UPI-NIRAJKUMARSHAW-BHARATPE.90072250582@FBPE-FDRL0001382-500853698837-PAY TO BHARATPE ME     -20.00   debit  HDFC
107 2025-01-08                                                                                                      OUTSIDE        0000500861234680                                                UPI-PRAJWAL N-Q069144038@YBL-YESB0YBLUPI-500861234680-OUTSIDE    -360.00   debit  HDFC
108 2025-01-10                                                                                                        LUNCH        0000501040081263                                        UPI-SWADISHTA FOODS-PAYTMQR64CGJW@PTYS-YESB0PTMUPI-501040081263-LUNCH   -1201.00   debit  HDFC
109 2025-01-10                                    UPI-MOHAMMED ASIF NADEEM-ASIFSABER3-1@OKAXIS-UTIB0001513-501049138896-UPI        0000501049138896                                    UPI-MOHAMMED ASIF NADEEM-ASIFSABER3-1@OKAXIS-UTIB0001513-501049138896-UPI  -50000.00   debit  HDFC
110 2025-01-10                                    UPI-MOHAMMED ASIF NADEEM-ASIFSABER3-1@OKAXIS-UTIB0001513-501049216590-UPI        0000501049216590                                    UPI-MOHAMMED ASIF NADEEM-ASIFSABER3-1@OKAXIS-UTIB0001513-501049216590-UPI  -48000.00   debit  HDFC
111 2025-01-11                                                       UPI-YOGESH-Q093100771@YBL-YESB0YBLUPI-501190090170-UPI        0000501190090170                                                       UPI-YOGESH-Q093100771@YBL-YESB0YBLUPI-501190090170-UPI     -60.00   debit  HDFC
112 2025-01-11                                                                                                    MEDICINES        0000501191687316                                    UPI-NAVKAR MEDICALS-POS.11328265@INDUS-INDB0MERCHA-501191687316-MEDICINES     -52.00   debit  HDFC
113 2025-01-11                                          UPI-NAVKAR MEDICALS-POS.11328265@INDUS-INDB0MERCHA-501191716513-UPI        0000501191716513                                          UPI-NAVKAR MEDICALS-POS.11328265@INDUS-INDB0MERCHA-501191716513-UPI     -40.00   debit  HDFC
114 2025-01-12                                             UPI-JAVEED PASHA-PAYTMQR617UQJ@PTYS-YESB0PTMUPI-501256158315-UPI        0000501256158315                                             UPI-JAVEED PASHA-PAYTMQR617UQJ@PTYS-YESB0PTMUPI-501256158315-UPI     -70.00   debit  HDFC
115 2025-01-12                                                                                                         EGGS        0000501257232910                                               UPI-SYED   SHABAZ-Q266485919@YBL-YESB0YBLUPI-501257232910-EGGS    -175.00   debit  HDFC
116 2025-01-13                                            00752320002361-TPT-LAPTOP-EUROFINS IT SOLUTIONS INDIA PRIVATE LTD        0000000202788152                                            00752320002361-TPT-LAPTOP-EUROFINS IT SOLUTIONS INDIA PRIVATE LTD   -5000.00   debit  HDFC
117 2025-01-13           NEFT DR-ICIC0000401-MOHAMMED ASIF NADEEM SABER-NETBANK, MUM-HDFCN52025011303273480-ADD BENEFICIARY  HDFCN52025011303273480           NEFT DR-ICIC0000401-MOHAMMED ASIF NADEEM SABER-NETBANK, MUM-HDFCN52025011303273480-ADD BENEFICIARY    -100.00   debit  HDFC
118 2025-01-15                                                                                           JIO20BR000BNVGH2N1        0000538192780652                            UPI-RELIANCE JIO INFOCOM-JIO@CITIBANK-CITI0RTGSMI-538192780652-JIO20BR000BNVGH2N1    -579.00   debit  HDFC
119 2025-01-15                                                                                                       PETROL        0000501500334355                                                 UPI-KIRAN-PAYTMQR5WPYRY@PTYS-YESB0PTMUPI-501500334355-PETROL    -355.00   debit  HDFC
120 2025-01-18                           UPI-SPAR HYPERMARKETS-LANDMARKSPAR@AXL-UTIB0AXLUPI-501813802511-PAYMENT FOR PINE26        0000501813802511                           UPI-SPAR HYPERMARKETS-LANDMARKSPAR@AXL-UTIB0AXLUPI-501813802511-PAYMENT FOR PINE26    -280.00   debit  HDFC
121 2025-01-18                                             UPI-ZEPTONOW-ZEPTONOW.ESBZ@HDFCBANK-HDFC0001794-501813844169-UPI        0000501813844169                                             UPI-ZEPTONOW-ZEPTONOW.ESBZ@HDFCBANK-HDFC0001794-501813844169-UPI    -255.03   debit  HDFC
122 2025-01-19                                         UPI-SRI VIRINCHI VENTURE-Q302946503@YBL-YESB0YBLUPI-501947161750-UPI        0000501947161750                                         UPI-SRI VIRINCHI VENTURE-Q302946503@YBL-YESB0YBLUPI-501947161750-UPI    -310.00   debit  HDFC
123 2025-01-19                                         UPI-SRI VIRINCHI VENTURE-Q302946503@YBL-YESB0YBLUPI-501947448618-UPI        0000501947448618                                         UPI-SRI VIRINCHI VENTURE-Q302946503@YBL-YESB0YBLUPI-501947448618-UPI     -75.00   debit  HDFC
124 2025-01-19                                                                                                      FLOWERS        0000501967324749                                             UPI-SYED BASHEER-Q583728593@YBL-YESB0YBLUPI-501967324749-FLOWERS    -350.00   debit  HDFC
125 2025-01-20                                       UPI-N  USHA-8073545525@IBL-SBIN0004926-604679485970-PAYMENT FROM PHONE        0000604679485970                                       UPI-N  USHA-8073545525@IBL-SBIN0004926-604679485970-PAYMENT FROM PHONE    1000.00  credit  HDFC
126 2025-01-22                                                                                                      OUTSIDE        0000502206952393                                                UPI-PRAJWAL N-Q069144038@YBL-YESB0YBLUPI-502206952393-OUTSIDE    -360.00   debit  HDFC
127 2025-01-24                              UPI-NYKAA ERETAIL PRIVAT-NYKAA.PAYU@HDFCBANK-HDFC0000499-502482525786-UPIINTENT        0000502482525786                              UPI-NYKAA ERETAIL PRIVAT-NYKAA.PAYU@HDFCBANK-HDFC0000499-502482525786-UPIINTENT   -1428.00   debit  HDFC
128 2025-01-25                                               UPI-SYEDA  FIRDOSE-Q922822033@YBL-YESB0YBLUPI-502546032089-UPI        0000502546032089                                               UPI-SYEDA  FIRDOSE-Q922822033@YBL-YESB0YBLUPI-502546032089-UPI     -60.00   debit  HDFC
129 2025-01-25                                                                                                       SNACKS        0000502554103552                                         UPI-SURENDRA NATH-PAYTMQR64ZTAQ@PTYS-YESB0PTMUPI-502554103552-SNACKS    -200.00   debit  HDFC
130 2025-01-26                                                                                                      HAIRCUT        0000502676664440                                      UPI-SHANE ALAM-PAYTMQRCJY2037KMB@PAYTM-YESB0PTMUPI-502676664440-HAIRCUT    -100.00   debit  HDFC
131 2025-01-26                                                                                                         FOOD        0000502688402472                                        UPI-SUKHADA KISHOR KUDAT-Q502884140@YBL-YESB0YBLUPI-502688402472-FOOD    -129.00   debit  HDFC
132 2025-01-26                                                UPI-RATHNAKAR K M-Q443595896@YBL-YESB0YBLUPI-502601624365-UPI        0000502601624365                                                UPI-RATHNAKAR K M-Q443595896@YBL-YESB0YBLUPI-502601624365-UPI     -10.00   debit  HDFC
133 2025-01-27                                                                            ME DC SI 416021XXXXXX3309 NETFLIX        0000502603060854                                                                            ME DC SI 416021XXXXXX3309 NETFLIX    -649.00   debit  HDFC
134 2025-01-27                                    UPI-SHREE MARKETING ASSO-PAYTM-67412621@PTYS-YESB0PTMUPI-502746931624-UPI        0000502746931624                                    UPI-SHREE MARKETING ASSO-PAYTM-67412621@PTYS-YESB0PTMUPI-502746931624-UPI     -65.00   debit  HDFC
135 2025-01-28                                            UPI-INDIAN RAILWAYS-RAILSBIUPI11@SBI-SBIN0006812-502888618955-UPI        0000502888618955                                            UPI-INDIAN RAILWAYS-RAILSBIUPI11@SBI-SBIN0006812-502888618955-UPI    -190.00   debit  HDFC
136 2025-01-29                          UPI-BANGALORE METRO RAIL-ENGLISH.BMRC.PAYU@INDUS-INDB0MERCHA-502900130232-UPIINTENT        0000502900130232                          UPI-BANGALORE METRO RAIL-ENGLISH.BMRC.PAYU@INDUS-INDB0MERCHA-502900130232-UPIINTENT     -72.20   debit  HDFC
137 2025-01-29                                                                                                       PETROL        0000502912667411               UPI-NN AND SONS FUEL STA-PAYTMQR281005050101MPBSV7QAX7TF@PAYTM-YESB0PTMUPI-502912667411-PETROL    -300.00   debit  HDFC
138 2025-01-30                                          UPI-M K SUBAIR-PAYTMQR4Z7NLVF6PY@PAYTM-YESB0PTMUPI-503070103441-UPI        0000503070103441                                          UPI-M K SUBAIR-PAYTMQR4Z7NLVF6PY@PAYTM-YESB0PTMUPI-503070103441-UPI     -55.00   debit  HDFC
139 2025-02-01                                                                                          SALARY FOR JAN-2025        0000501308776814                                                                                          SALARY FOR JAN-2025  145633.00  credit  HDFC
140 2025-02-01                                                                                                    GROCERIES        0000503264168538                                     UPI-A L M D VEGETABLES-Q297253553@YBL-YESB0YBLUPI-503264168538-GROCERIES    -115.00   debit  HDFC
141 2025-02-01                         UPI-ALI ARBAAZ-BHARATPE.90069133307@FBPE-FDRL0001382-503264386203-PAY TO BHARATPE ME        0000503264386203                         UPI-ALI ARBAAZ-BHARATPE.90069133307@FBPE-FDRL0001382-503264386203-PAY TO BHARATPE ME    -280.00   debit  HDFC
142 2025-02-01                                                    UPI-AKBAR-PAYTMQR617UU1@PTYS-YESB0PTMUPI-503264721844-UPI        0000503264721844                                                    UPI-AKBAR-PAYTMQR617UU1@PTYS-YESB0PTMUPI-503264721844-UPI     -35.00   debit  HDFC
143 2025-02-01                                                                                                    GROCERIES        0000503276474895                                        UPI-ASHRAF NISHA-PAYTM.S17B6B1@PTY-YESB0MCHUPI-503276474895-GROCERIES    -110.00   debit  HDFC
144 2025-02-01                                                UPI-SYED   SHABAZ-Q266485919@YBL-YESB0YBLUPI-503276711551-UPI        0000503276711551                                                UPI-SYED   SHABAZ-Q266485919@YBL-YESB0YBLUPI-503276711551-UPI    -175.00   debit  HDFC
145 2025-02-01                                           UPI-A L M D VEGETABLES-Q248353038@YBL-YESB0YBLUPI-503289846386-UPI        0000503289846386                                           UPI-A L M D VEGETABLES-Q248353038@YBL-YESB0YBLUPI-503289846386-UPI     -20.00   debit  HDFC
146 2025-02-02                                                                                                       SNACKS        0000503325324371                              UPI-SYED MAZHAR-BAJAJPAY.6879729.04196150@INDUS-INDB0MERCHA-503325324371-SNACKS    -100.00   debit  HDFC
147 2025-02-02                                            UPI-STREET LOUNGE-PAYTMQR5CQRGW@PTYS-YESB0PTMUPI-503334861841-UPI        0000503334861841                                            UPI-STREET LOUNGE-PAYTMQR5CQRGW@PTYS-YESB0PTMUPI-503334861841-UPI    -120.00   debit  HDFC
148 2025-02-03                                        UPI-HOWLERS-MAB.037347012850147@AXISBANK-UTIB0000100-503479044949-UPI        0000503479044949                                        UPI-HOWLERS-MAB.037347012850147@AXISBANK-UTIB0000100-503479044949-UPI    -175.00   debit  HDFC
149 2025-02-04                                                                                                    BREAKFAST        0000503504730927                                       UPI-COVAI KITCHEN-PAYTM.S170NM0@PTY-YESB0MCHUPI-503504730927-BREAKFAST     -70.00   debit  HDFC
150 2025-02-04                                                 UPI-ADVAITA-PAYTM-79431653@PTYS-YESB0PTMUPI-503537157844-UPI        0000503537157844                                                 UPI-ADVAITA-PAYTM-79431653@PTYS-YESB0PTMUPI-503537157844-UPI    -240.00   debit  HDFC
151 2025-02-05                                         UPI-B H ENTERPRISES-BHENTERPRISES@ICICI-ICIC0DC0099-503602110911-UPI        0000503602110911                                         UPI-B H ENTERPRISES-BHENTERPRISES@ICICI-ICIC0DC0099-503602110911-UPI    -363.00   debit  HDFC
152 2025-02-09                                                       UPI-ZEPTO-ZEPTOONLINE@YBL-YESB0YBLUPI-504074116673-UPI        0000504074116673                                                       UPI-ZEPTO-ZEPTOONLINE@YBL-YESB0YBLUPI-504074116673-UPI    -368.16   debit  HDFC
153 2025-02-12                                                       UPI-EATCLUB-EATCLUB@PTYBL-YESB0PTMUPI-504333681765-UPI        0000504333681765                                                       UPI-EATCLUB-EATCLUB@PTYBL-YESB0PTMUPI-504333681765-UPI    -104.00   debit  HDFC
154 2025-02-15                                                                                                       SNACKS        0000100088238813                              UPI-SYED MAZHAR-BAJAJPAY.6879729.04196150@INDUS-INDB0MERCHA-100088238813-SNACKS    -100.00   debit  HDFC
155 2025-02-15                                                     UPI-D B YOGA-Q670056786@YBL-YESB0YBLUPI-100088366426-UPI        0000100088366426                                                     UPI-D B YOGA-Q670056786@YBL-YESB0YBLUPI-100088366426-UPI     -45.00   debit  HDFC
156 2025-02-15                                        UPI-HOWLERS-MAB.037347012850174@AXISBANK-UTIB0000100-100100301517-UPI        0000100100301517                                        UPI-HOWLERS-MAB.037347012850174@AXISBANK-UTIB0000100-100100301517-UPI    -355.00   debit  HDFC
157 2025-02-16                                    UPI-SMOKY DOCKY-VYAPAR.170724804929@HDFCBANK-HDFC0000001-100139232504-UPI        0000100139232504                                    UPI-SMOKY DOCKY-VYAPAR.170724804929@HDFCBANK-HDFC0000001-100139232504-UPI    -313.00   debit  HDFC
158 2025-02-16                                                UPI-SHAHEER T-PAYTMQR65SDM9@PTYS-YESB0PTMUPI-100142032362-UPI        0000100142032362                                                UPI-SHAHEER T-PAYTMQR65SDM9@PTYS-YESB0PTMUPI-100142032362-UPI    -180.00   debit  HDFC
159 2025-02-19                                                                                                    BADMINTON        0000100274741266                           UPI-MOHAMMAD SHARJIL MOH-MDSHARJIL99@OKHDFCBANK-HDFC0001785-100274741266-BADMINTON    -150.00   debit  HDFC
160 2025-02-21                                                  UPI-KAREEM ULLA-9986380050@AXL-SBIN0004926-100358767864-UPI        0000100358767864                                                  UPI-KAREEM ULLA-9986380050@AXL-SBIN0004926-100358767864-UPI     -20.00   debit  HDFC
161 2025-02-21                                                   UPI-NASRIN TAJ-Q880923565@YBL-YESB0YBLUPI-100360389594-UPI        0000100360389594                                                   UPI-NASRIN TAJ-Q880923565@YBL-YESB0YBLUPI-100360389594-UPI     -30.00   debit  HDFC
162 2025-02-21                           UPI-SPAR HYPERMARKETS-LANDMARKSPAR@YBL-YESB0YBLUPI-100369551469-PAYMENT FOR PINE31        0000100369551469                           UPI-SPAR HYPERMARKETS-LANDMARKSPAR@YBL-YESB0YBLUPI-100369551469-PAYMENT FOR PINE31    -300.00   debit  HDFC
163 2025-02-21                                                                UPI-NA-NA-HDFC0003962-505200695475-REQPAYLITE        0000505200695475                                                                UPI-NA-NA-HDFC0003962-505200695475-REQPAYLITE    -500.00   debit  HDFC
164 2025-02-22                                                                        POS 416021XXXXXX3309 AMAZON GIFT CARD        0000505205265257                                                                        POS 416021XXXXXX3309 AMAZON GIFT CARD   -1000.00   debit  HDFC
165 2025-02-23                                                                                                       PETROL        0000100480468797                                       UPI-SRI MAHADESHWARA FIL-Q70665541@YBL-YESB0YBLUPI-100480468797-PETROL    -468.00   debit  HDFC
166 2025-02-23                                                                UPI-NA-NA-HDFC0003962-505400772625-REQPAYLITE        0000505400772625                                                                UPI-NA-NA-HDFC0003962-505400772625-REQPAYLITE   -1000.00   debit  HDFC
167 2025-02-24                                                                                                      CHARITY        0000100540165124                                 UPI-MOHAMMED ASIF NADEEM-ASIFSABER3@OKICICI-ICIC0000245-100540165124-CHARITY   -1000.00   debit  HDFC
168 2025-02-25                                       UPI-N  USHA-8073545525@IBL-SBIN0004926-092227205393-PAYMENT FROM PHONE        0000092227205393                                       UPI-N  USHA-8073545525@IBL-SBIN0004926-092227205393-PAYMENT FROM PHONE     100.00  credit  HDFC
169 2025-02-25                                        IMPS-505613380885-MOHAMMED ASIF NADEEM SABER-ICIC-XXXXXXXX8214-FATHER        0000505613380885                                        IMPS-505613380885-MOHAMMED ASIF NADEEM SABER-ICIC-XXXXXXXX8214-FATHER -120000.00   debit  HDFC
170 2025-02-26                    NEFT DR-ICIC0000401-MOHAMMED ASIF NADEEM SABER-NETBANK, MUM-HDFCN52025022680185137-FATHER  HDFCN52025022680185137                    NEFT DR-ICIC0000401-MOHAMMED ASIF NADEEM SABER-NETBANK, MUM-HDFCN52025022680185137-FATHER  -30000.00   debit  HDFC
171 2025-02-26              UPI-MALABAR GOLD PVT LTD-MALABARGOLDPVTLTD.RZP@AXISBANK-UTIB0000100-100600444201-PAYVIARAZORPAY        0000100600444201              UPI-MALABAR GOLD PVT LTD-MALABARGOLDPVTLTD.RZP@AXISBANK-UTIB0000100-100600444201-PAYVIARAZORPAY  -10000.00   debit  HDFC
172 2025-02-26                                        IMPS-505709349228-MOHAMMED ASIF NADEEM SABER-ICIC-XXXXXXXX8214-FATHER        0000505709349228                                        IMPS-505709349228-MOHAMMED ASIF NADEEM SABER-ICIC-XXXXXXXX8214-FATHER  -30000.00   debit  HDFC
173 2025-02-26                                                                            ME DC SI 416021XXXXXX3309 NETFLIX        0000505716167980                                                                            ME DC SI 416021XXXXXX3309 NETFLIX    -649.00   debit  HDFC
174 2025-02-28                                       UPI-QURRATH UL AIN NUZHA-NUZZIE13@OKICICI-ICIC0001769-100703780064-UPI        0000100703780064                                       UPI-QURRATH UL AIN NUZHA-NUZZIE13@OKICICI-ICIC0001769-100703780064-UPI   -5000.00   debit  HDFC
175 2025-03-01                                                                                          SALARY FOR FEB-2025        0000502286984240                                                                                          SALARY FOR FEB-2025   75164.00  credit  HDFC
176 2025-03-04                           UPI-HEED COMMUNICATIONS -PULSE2PIXEL@YESBANK-YESB0000016-506392312685-PAY WITH UPI        0000506392312685                           UPI-HEED COMMUNICATIONS -PULSE2PIXEL@YESBANK-YESB0000016-506392312685-PAY WITH UPI  -25000.00   debit  HDFC
177 2025-03-05                                              IMPS-506422706908-MOHAMMED ASIF NADEEM-ICIC-XXXXXXXX8214-FAMILY        0000506422706908                                              IMPS-506422706908-MOHAMMED ASIF NADEEM-ICIC-XXXXXXXX8214-FAMILY   18705.00  credit  HDFC
178 2025-03-05                        UPI-SIGARAMBOTLA  SURESH-SURESH619881@AXL-KKBK0007462-624307302465-PAYMENT FROM PHONE        0000624307302465                        UPI-SIGARAMBOTLA  SURESH-SURESH619881@AXL-KKBK0007462-624307302465-PAYMENT FROM PHONE  -18705.00   debit  HDFC
179 2025-03-06                                               IMPS-506520886738-INSTANTPAY INDIA LTD-IDFB-XXXXXXX9701-PAYOUT        0000506520886738                                               IMPS-506520886738-INSTANTPAY INDIA LTD-IDFB-XXXXXXX9701-PAYOUT    9081.00  credit  HDFC
180 2025-03-08                                                                UPI-NA-NA-HDFC0003962-506700168369-REQPAYLITE        0000506700168369                                                                UPI-NA-NA-HDFC0003962-506700168369-REQPAYLITE   -1500.00   debit  HDFC
181 2025-03-09                                        UPI-FEMINA CUT PIECE-PAYTMQR13JWR9@PAYTM-YESB0PTMUPI-101203091982-UPI        0000101203091982                                        UPI-FEMINA CUT PIECE-PAYTMQR13JWR9@PAYTM-YESB0PTMUPI-101203091982-UPI   -1650.00   debit  HDFC
182 2025-03-10                          UPI-GLOSSGLOW PRIVATE LI-URBANEAPPEAL@YESBANK-YESB0000016-506909703267-PAY WITH UPI        0000506909703267                          UPI-GLOSSGLOW PRIVATE LI-URBANEAPPEAL@YESBANK-YESB0000016-506909703267-PAY WITH UPI  -10000.00   debit  HDFC
183 2025-03-12                                                                                           JIO20BR000BULSI151        0000101357451868                            UPI-RELIANCE JIO INFOCOM-JIO@CITIBANK-CITI0RTGSMI-101357451868-JIO20BR000BULSI151    -799.00   debit  HDFC
184 2025-03-13                         UPI-UNIKEEY TRADING PRIV-SNAPSHOPPEDIA@YESBANK-YESB0000016-507218487316-PAY WITH UPI        0000507218487316                         UPI-UNIKEEY TRADING PRIV-SNAPSHOPPEDIA@YESBANK-YESB0000016-507218487316-PAY WITH UPI  -10000.00   debit  HDFC
185 2025-03-13                                     UPI-MOHAMMED ASIF NADEEM-ASIFSABER3@OKICICI-ICIC0000245-507242318180-UPI        0000507242318180                                     UPI-MOHAMMED ASIF NADEEM-ASIFSABER3@OKICICI-ICIC0000245-507242318180-UPI   18500.00  credit  HDFC
186 2025-03-13                            UPI-UNIVISTA TRADERS PRI-SPARKNCART@YESBANK-YESB0000016-507218614113-PAY WITH UPI        0000507218614113                            UPI-UNIVISTA TRADERS PRI-SPARKNCART@YESBANK-YESB0000016-507218614113-PAY WITH UPI  -18500.00   debit  HDFC
187 2025-03-13                                                                                           GENERATING DYNAMIC        0000101444200284           UPI-UPAHARA DARSHINI-UPAHARADARSHINI.41924623@HDFCBANK-HDFC0MERUPI-101444200284-GENERATING DYNAMIC    -981.00   debit  HDFC
188 2025-03-14                                  UPI-M D ZAINULLA-9448137996@YBL-HDFC0004210-893269830379-PAYMENT FROM PHONE        0000893269830379                                  UPI-M D ZAINULLA-9448137996@YBL-HDFC0004210-893269830379-PAYMENT FROM PHONE    -170.00   debit  HDFC
189 2025-03-15                                                                               POS 416021XXXXXX3309 RETAILCCA        0000507415157060                                                                               POS 416021XXXXXX3309 RETAILCCA     -36.00   debit  HDFC
190 2025-03-15                                   UPI-IRSHAD KHAN-8050699386@IBL-INDB0000229-774824526355-PAYMENT FROM PHONE        0000774824526355                                   UPI-IRSHAD KHAN-8050699386@IBL-INDB0000229-774824526355-PAYMENT FROM PHONE    -150.00   debit  HDFC
191 2025-03-15                                           UPI-MOHAMMED HASSAN-PAYTM.S1341E5@PTY-YESB0MCHUPI-101528961140-UPI        0000101528961140                                           UPI-MOHAMMED HASSAN-PAYTM.S1341E5@PTY-YESB0MCHUPI-101528961140-UPI    -300.00   debit  HDFC
192 2025-03-15                                                UPI-MUNAWAR PASHA-Q179702206@YBL-YESB0YBLUPI-101529119073-UPI        0000101529119073                                                UPI-MUNAWAR PASHA-Q179702206@YBL-YESB0YBLUPI-101529119073-UPI    -150.00   debit  HDFC
193 2025-03-15                 UPI-NKP EMPIRE VENTURES -NKPEMPIREVENTURESPVT.63223033@HDFCBANK-HDFC0MERUPI-101530689427-UPI        0000101530689427                 UPI-NKP EMPIRE VENTURES -NKPEMPIREVENTURESPVT.63223033@HDFCBANK-HDFC0MERUPI-101530689427-UPI    -200.00   debit  HDFC
194 2025-03-15                                      UPI-GFB  NEXUS MALL-PAYTM.D14285162646@PTY-YESB0MCHUPI-101533648796-UPI        0000101533648796                                      UPI-GFB  NEXUS MALL-PAYTM.D14285162646@PTY-YESB0MCHUPI-101533648796-UPI    -205.00   debit  HDFC
195 2025-03-15                                      UPI-GFB  NEXUS MALL-PAYTM.D14285162646@PTY-YESB0MCHUPI-101534086205-UPI        0000101534086205                                      UPI-GFB  NEXUS MALL-PAYTM.D14285162646@PTY-YESB0MCHUPI-101534086205-UPI    -205.00   debit  HDFC
196 2025-03-16                           UPI-WWW EXCITEL COM-EXCITEL.PAYU@HDFCBANK-HDFC0MERUPI-100176156139-UPI TRANSACTION        0000100176156139                           UPI-WWW EXCITEL COM-EXCITEL.PAYU@HDFCBANK-HDFC0MERUPI-100176156139-UPI TRANSACTION   -2889.82   debit  HDFC
197 2025-03-16                                           UPI-A L M D VEGETABLES-Q297253553@YBL-YESB0YBLUPI-101576200520-UPI        0000101576200520                                           UPI-A L M D VEGETABLES-Q297253553@YBL-YESB0YBLUPI-101576200520-UPI    -230.00   debit  HDFC
198 2025-03-16                                           UPI-FAYAQ ULLA SHARIFF-Q543368046@YBL-YESB0YBLUPI-101576507556-UPI        0000101576507556                                           UPI-FAYAQ ULLA SHARIFF-Q543368046@YBL-YESB0YBLUPI-101576507556-UPI    -230.00   debit  HDFC
199 2025-03-16                                              UPI-ASHRAF NISHA-PAYTM.S17B6B1@PTY-YESB0MCHUPI-101579724673-UPI        0000101579724673                                              UPI-ASHRAF NISHA-PAYTM.S17B6B1@PTY-YESB0MCHUPI-101579724673-UPI     -68.00   debit  HDFC
200 2025-03-16                                   UPI-UIDAI-UIDAI726685.RZP@RXAIRTEL-AIRP0000011-101596642400-PAYMENTTOUIDAI        0000101596642400                                   UPI-UIDAI-UIDAI726685.RZP@RXAIRTEL-AIRP0000011-101596642400-PAYMENTTOUIDAI     -50.00   debit  HDFC
201 2025-03-17                        UPI-RAKSHIT SHIRISH RUDR-8904637770-2@AXL-UTIB0004071-706800633059-PAYMENT FROM PHONE        0000706800633059                        UPI-RAKSHIT SHIRISH RUDR-8904637770-2@AXL-UTIB0004071-706800633059-PAYMENT FROM PHONE     600.00  credit  HDFC
202 2025-03-18                                    UPI-MOHAMMED ASIF NADEEM-ASIFSABER3-1@OKAXIS-UTIB0001513-507773354046-UPI        0000507773354046                                    UPI-MOHAMMED ASIF NADEEM-ASIFSABER3-1@OKAXIS-UTIB0001513-507773354046-UPI   45000.00  credit  HDFC
203 2025-03-18                 UPI-VANDELAY EXPORTS PRI-VANDELAYEXPORTS.PAY10@SBI-SBIN0006209-100121592040-PAY WITH SBI UPI        0000100121592040                 UPI-VANDELAY EXPORTS PRI-VANDELAYEXPORTS.PAY10@SBI-SBIN0006209-100121592040-PAY WITH SBI UPI  -45000.00   debit  HDFC
204 2025-03-18                                 UPI-NYKAA ERETAIL PRIVAT-NYKAA.PAYU@ICICI-ICIC0DC0099-101668951529-UPIINTENT        0000101668951529                                 UPI-NYKAA ERETAIL PRIVAT-NYKAA.PAYU@ICICI-ICIC0DC0099-101668951529-UPIINTENT   -2189.00   debit  HDFC
205 2025-03-18                           UPI-NYRAA ECOMMERCE INDI-URBANDRAPES@YESBANK-YESB0000016-507732121288-PAY WITH UPI        0000507732121288                           UPI-NYRAA ECOMMERCE INDI-URBANDRAPES@YESBANK-YESB0000016-507732121288-PAY WITH UPI  -45000.00   debit  HDFC
206 2025-03-18                                           UPI-ABDUL  KHADEER-AMZN0010237509@APL-SBIN0005407-101683728233-UPI        0000101683728233                                           UPI-ABDUL  KHADEER-AMZN0010237509@APL-SBIN0005407-101683728233-UPI    -200.00   debit  HDFC
207 2025-03-18                                                                                                      OUTSIDE        0000101695517778                                                      UPI-RMA-Q451926543@YBL-YESB0YBLUPI-101695517778-OUTSIDE    -100.00   debit  HDFC
208 2025-03-18                                     UPI-AMAZON PAY-AMAZONUPI@APL-UTIB0000100-101697900537-YOU ARE PAYING FOR        0000101697900537                                     UPI-AMAZON PAY-AMAZONUPI@APL-UTIB0000100-101697900537-YOU ARE PAYING FOR   -1293.00   debit  HDFC
209 2025-03-19                          UPI-AYESHA THAHNIYATH SA-9945178600@YBL-HDFC0000365-761836325177-PAYMENT FROM PHONE        0000761836325177                          UPI-AYESHA THAHNIYATH SA-9945178600@YBL-HDFC0000365-761836325177-PAYMENT FROM PHONE    2200.00  credit  HDFC
210 2025-03-19                                     UPI-MOHAMMED ASIF NADEEM-ASIFSABER3@OKICICI-ICIC0000245-544451326691-UPI        0000544451326691                                     UPI-MOHAMMED ASIF NADEEM-ASIFSABER3@OKICICI-ICIC0000245-544451326691-UPI   45000.00  credit  HDFC
211 2025-03-19                          UPI-AAFIFA ENTERPRISES-DAPPERPROPLACE@YESBANK-YESB0000016-507833866372-PAY WITH UPI        0000507833866372                          UPI-AAFIFA ENTERPRISES-DAPPERPROPLACE@YESBANK-YESB0000016-507833866372-PAY WITH UPI  -45000.00   debit  HDFC
212 2025-03-19                                        UPI-HOWLERS-MAB.037347012850174@AXISBANK-UTIB0000100-101732887848-UPI        0000101732887848                                        UPI-HOWLERS-MAB.037347012850174@AXISBANK-UTIB0000100-101732887848-UPI     -85.00   debit  HDFC
213 2025-03-19                                                 UPI-SURAKSHA D S-Q539038428@YBL-YESB0YBLUPI-101734014178-UPI        0000101734014178                                                 UPI-SURAKSHA D S-Q539038428@YBL-YESB0YBLUPI-101734014178-UPI     -89.00   debit  HDFC
214 2025-03-19                                                                               POS 416021XXXXXX3309 RETAILCCA        0000507821021371                                                                               POS 416021XXXXXX3309 RETAILCCA    -915.00   debit  HDFC
215 2025-03-20                                                                                                GRILL CHICKEN        0000101784759779                                        UPI-BINU  MATHEW-BINMATS@OKSBI-SBIN0008652-101784759779-GRILL CHICKEN    -200.00   debit  HDFC
216 2025-03-20                                                                               POS 416021XXXXXX3309 RETAILCCA        0000507921110903                                                                               POS 416021XXXXXX3309 RETAILCCA    -259.00   debit  HDFC
217 2025-03-21                                   UPI-AMAZON INDIA-AMAZONUPI@APL-UTIB0000100-508069034783-YOU ARE PAYING FOR        0000508069034783                                   UPI-AMAZON INDIA-AMAZONUPI@APL-UTIB0000100-508069034783-YOU ARE PAYING FOR    -119.00   debit  HDFC
218 2025-03-21                          UPI-MOHAMMED ASIF NADEEM-7799578680@AXL-ICIC0000245-321047983256-PAYMENT FROM PHONE        0000321047983256                          UPI-MOHAMMED ASIF NADEEM-7799578680@AXL-ICIC0000245-321047983256-PAYMENT FROM PHONE    -399.00   debit  HDFC
219 2025-03-21                                                                                                        FITRA        0000049769754549                                       UPI-MOHAMMED ASIF NADEEM-7799578680@AXL-ICIC0000245-049769754549-FITRA    -300.00   debit  HDFC
220 2025-03-21                                              IMPS-508019521997-PAY10 SERVICES PRIVA-IDFB-XXXXXXX0150-IMPSTXN        0000508019521997                                              IMPS-508019521997-PAY10 SERVICES PRIVA-IDFB-XXXXXXX0150-IMPSTXN   91247.00  credit  HDFC
221 2025-03-21                                               UPI-SAMAD  HUSSAIN-Q806478421@YBL-YESB0YBLUPI-101841979414-UPI        0000101841979414                                               UPI-SAMAD  HUSSAIN-Q806478421@YBL-YESB0YBLUPI-101841979414-UPI     -80.00   debit  HDFC
222 2025-03-21                                         UPI-BP PETROL PUMP  BP B-Q561098376@YBL-YESB0YBLUPI-101846908325-UPI        0000101846908325                                         UPI-BP PETROL PUMP  BP B-Q561098376@YBL-YESB0YBLUPI-101846908325-UPI    -475.00   debit  HDFC
223 2025-03-22                                              IMPS-508105923005-PAY10 SERVICES PRIVA-IDFB-XXXXXXX0150-IMPSTXN        0000508105923005                                              IMPS-508105923005-PAY10 SERVICES PRIVA-IDFB-XXXXXXX0150-IMPSTXN   13703.00  credit  HDFC
224 2025-03-23                                               IMPS-508219362693-INSTANTPAY INDIA LTD-IDFB-XXXXXXX9701-PAYOUT        0000508219362693                                               IMPS-508219362693-INSTANTPAY INDIA LTD-IDFB-XXXXXXX9701-PAYOUT    9135.00  credit  HDFC
225 2025-03-23                  UPI-NATURALS STMARKS ROA-PAYTMQR28100505010110UKQRV99E88@PAYTM-YESB0PTMUPI-101955149316-UPI        0000101955149316                  UPI-NATURALS STMARKS ROA-PAYTMQR28100505010110UKQRV99E88@PAYTM-YESB0PTMUPI-101955149316-UPI    -425.00   debit  HDFC
226 2025-03-24                                                 UPI-KRISHNA  M-KRISHNAM4968@SBI-SBIN0040871-101980489660-UPI        0000101980489660                                                 UPI-KRISHNA  M-KRISHNAM4968@SBI-SBIN0040871-101980489660-UPI    -103.00   debit  HDFC
227 2025-03-26                          UPI-BANGALORE METRO RAIL-ENGLISH.BMRC.PAYU@INDUS-INDB0MERCHA-102102002116-UPIINTENT        0000102102002116                          UPI-BANGALORE METRO RAIL-ENGLISH.BMRC.PAYU@INDUS-INDB0MERCHA-102102002116-UPIINTENT     -70.00   debit  HDFC
228 2025-03-26                                              IMPS-508522419888-PAY10 SERVICES PRIVA-IDFB-XXXXXXX0150-IMPSTXN        0000508522419888                                              IMPS-508522419888-PAY10 SERVICES PRIVA-IDFB-XXXXXXX0150-IMPSTXN   10135.00  credit  HDFC
229 2025-03-26                                              IMPS-508523509078-PAY10 SERVICES PRIVA-IDFB-XXXXXXX0150-IMPSTXN        0000508523509078                                              IMPS-508523509078-PAY10 SERVICES PRIVA-IDFB-XXXXXXX0150-IMPSTXN   10134.00  credit  HDFC
230 2025-03-27                                              IMPS-508605654170-PAY10 SERVICES PRIVA-IDFB-XXXXXXX0150-IMPSTXN        0000508605654170                                              IMPS-508605654170-PAY10 SERVICES PRIVA-IDFB-XXXXXXX0150-IMPSTXN   10134.00  credit  HDFC
231 2025-03-27                                                                            ME DC SI 416021XXXXXX3309 NETFLIX        0000508502504212                                                                            ME DC SI 416021XXXXXX3309 NETFLIX    -649.00   debit  HDFC
232 2025-03-27                          UPI-AAMIRA ENTERPRISES-TRENDZELEGANCE@YESBANK-YESB0000016-508658827093-PAY WITH UPI        0000508658827093                          UPI-AAMIRA ENTERPRISES-TRENDZELEGANCE@YESBANK-YESB0000016-508658827093-PAY WITH UPI  -48760.00   debit  HDFC
233 2025-03-27                          UPI-AAFIFA ENTERPRISES-DAPPERPROPLACE@YESBANK-YESB0000016-508658830753-PAY WITH UPI        0000508658830753                          UPI-AAFIFA ENTERPRISES-DAPPERPROPLACE@YESBANK-YESB0000016-508658830753-PAY WITH UPI  -45000.00   debit  HDFC
234 2025-03-27                                     UPI-TACO BELL ROYAL MEEN-PAYTM-7977105@PTYS-YESB0PTMUPI-102148882837-UPI        0000102148882837                                     UPI-TACO BELL ROYAL MEEN-PAYTM-7977105@PTYS-YESB0PTMUPI-102148882837-UPI    -261.00   debit  HDFC
235 2025-03-27                                                                                                    GROCERIES        0000102160424598                                              UPI-AKBAR-PAYTMQR617UU1@PTYS-YESB0PTMUPI-102160424598-GROCERIES    -105.00   debit  HDFC
236 2025-03-28                                                                                                   CELLO TQPE        0000102177256959                                           UPI-KAREEM ULLA-9986380050@AXL-SBIN0004926-102177256959-CELLO TQPE     -50.00   debit  HDFC
237 2025-03-28                                                                                                       MASJID        0000102186228630                                                UPI-MD  SHAHID-8639823480@IBL-SBIN0009345-102186228630-MASJID    -100.00   debit  HDFC
238 2025-03-28                                      UPI-SHABEENA-Q272596735@YBL-YESB0YBLUPI-539095659387-PAYMENT FROM PHONE        0000539095659387                                      UPI-SHABEENA-Q272596735@YBL-YESB0YBLUPI-539095659387-PAYMENT FROM PHONE     -60.00   debit  HDFC
239 2025-03-29                                                                                                      CHARITY        0000102240627750                                 UPI-MOHAMMED ASIF NADEEM-ASIFSABER3@OKICICI-ICIC0000245-102240627750-CHARITY   -8400.00   debit  HDFC
240 2025-03-30                                         UPI-LIFE CARE MEDICALS 2-Q614467359@YBL-YESB0YBLUPI-102278263279-UPI        0000102278263279                                         UPI-LIFE CARE MEDICALS 2-Q614467359@YBL-YESB0YBLUPI-102278263279-UPI     -75.00   debit  HDFC
241 2025-03-30                         UPI-ALI ARBAAZ-BHARATPE.90069133307@FBPE-FDRL0001382-102309088643-PAY TO BHARATPE ME        0000102309088643                         UPI-ALI ARBAAZ-BHARATPE.90069133307@FBPE-FDRL0001382-102309088643-PAY TO BHARATPE ME    -250.00   debit  HDFC
242 2025-03-30                           UPI-SPAR HYPERMARKETS-LANDMARKSPAR@YBL-YESB0YBLUPI-102310080193-PAYMENT FOR PINE37        0000102310080193                           UPI-SPAR HYPERMARKETS-LANDMARKSPAR@YBL-YESB0YBLUPI-102310080193-PAYMENT FOR PINE37    -439.10   debit  HDFC
243 2025-03-30                                          UPI-M K SUBAIR-PAYTMQR4Z7NLVF6PY@PAYTM-YESB0PTMUPI-102310798754-UPI        0000102310798754                                          UPI-M K SUBAIR-PAYTMQR4Z7NLVF6PY@PAYTM-YESB0PTMUPI-102310798754-UPI    -272.00   debit  HDFC
244 2025-03-30                                             UPI-ZEPTONOW-ZEPTONOW.ESBZ@HDFCBANK-HDFC0MERUPI-102314436624-UPI        0000102314436624                                             UPI-ZEPTONOW-ZEPTONOW.ESBZ@HDFCBANK-HDFC0MERUPI-102314436624-UPI    -315.00   debit  HDFC
245 2025-03-31                                        UPI-BUNNY BAKERS-PAYTMQR125C4DUWWS@PAYTM-YESB0PTMUPI-102382920707-UPI        0000102382920707                                        UPI-BUNNY BAKERS-PAYTMQR125C4DUWWS@PAYTM-YESB0PTMUPI-102382920707-UPI    -125.00   debit  HDFC
246 2025-03-31                                                                                                        EXTRA        0000102382939913                                      UPI-BUNNY BAKERS-PAYTMQR125C4DUWWS@PAYTM-YESB0PTMUPI-102382939913-EXTRA     -10.00   debit  HDFC
247 2025-03-31                                                                                              RUQAIYA PARATHA        0000102383297866                             UPI-VILLAGE HYPER BAZAAR-Q885757033@YBL-YESB0YBLUPI-102383297866-RUQAIYA PARATHA    -220.00   debit  HDFC
248 2025-03-31                                            UPI-RASHID AHMED-RASHID.ME19@OKICICI-BARB0VJVIJB-545692705071-UPI        0000545692705071                                            UPI-RASHID AHMED-RASHID.ME19@OKICICI-BARB0VJVIJB-545692705071-UPI     336.51  credit  HDFC
249 2025-03-31                                                                                                         EIDI        0000509020334750                                             UPI-RUQAIYA AHMED-RUQAIYA95@OKAXIS-BKID0008423-509020334750-EIDI     499.00  credit  HDFC
250 2025-03-31                                              UPI-RUQAIYA AHMED-RUQAIYA95@OKAXIS-BKID0008423-509043333094-UPI        0000509043333094                                              UPI-RUQAIYA AHMED-RUQAIYA95@OKAXIS-BKID0008423-509043333094-UPI       1.00  credit  HDFC
251 2025-04-01                                                                               INTEREST PAID TILL 31-MAR-2025         000000000000000                                                                               INTEREST PAID TILL 31-MAR-2025    1074.00  credit  HDFC
252 2025-04-01                                                                                          SALARY FOR MAR-2025        0000503319279961                                                                                          SALARY FOR MAR-2025   73821.00  credit  HDFC
253 2025-04-02                                UPI-SHAISTHA FATHIMA-SHAISTHA.SHAKEER@OKHDFCBANK-CNRB0000033-102457489094-UPI        0000102457489094                                UPI-SHAISTHA FATHIMA-SHAISTHA.SHAKEER@OKHDFCBANK-CNRB0000033-102457489094-UPI     200.00  credit  HDFC
254 2025-04-03                           UPI-CORNER HOUSE ICE CRE-VYAPAR.172400988805@HDFCBANK-HDFC0MERUPI-102543185368-UPI        0000102543185368                           UPI-CORNER HOUSE ICE CRE-VYAPAR.172400988805@HDFCBANK-HDFC0MERUPI-102543185368-UPI    -519.00   debit  HDFC
255 2025-04-03                                      UPI-PRABHANTH ENTERPRISE-88094444@IDFCBANK-IDFB0080185-102544358120-UPI        0000102544358120                                      UPI-PRABHANTH ENTERPRISE-88094444@IDFCBANK-IDFB0080185-102544358120-UPI    -180.00   debit  HDFC
256 2025-04-03                                    UPI-MOHAMMAD MANSOOR-PAYTMQRD2HB61H0G9@PAYTM-YESB0PTMUPI-102555265850-UPI        0000102555265850                                    UPI-MOHAMMAD MANSOOR-PAYTMQRD2HB61H0G9@PAYTM-YESB0PTMUPI-102555265850-UPI     -20.00   debit  HDFC
257 2025-04-04              UPI-MALABAR GOLD PVT LTD-MALABARGOLDPVTLTD.RZP@AXISBANK-UTIB0000100-102569934525-PAYVIARAZORPAY        0000102569934525              UPI-MALABAR GOLD PVT LTD-MALABARGOLDPVTLTD.RZP@AXISBANK-UTIB0000100-102569934525-PAYVIARAZORPAY  -10000.00   debit  HDFC
258 2025-04-07                                              UPI-SHIVA KUMAR M R-CKCINFO232@AXL-FDRL0007777-102741768824-UPI        0000102741768824                                              UPI-SHIVA KUMAR M R-CKCINFO232@AXL-FDRL0007777-102741768824-UPI     -95.00   debit  HDFC
259 2025-04-07                          UPI-BANGALORE METRO RAIL-ENGLISH.BMRC.PAYU@INDUS-INDB0MERCHA-102741835214-UPIINTENT        0000102741835214                          UPI-BANGALORE METRO RAIL-ENGLISH.BMRC.PAYU@INDUS-INDB0MERCHA-102741835214-UPIINTENT     -40.00   debit  HDFC
260 2025-04-07                                                                                                       PARCEL        0000381232782599                                            UPI-SHANTHAMMA B G-9901864677@AXL-PKGB0012133-381232782599-PARCEL    -100.00   debit  HDFC
261 2025-04-09                                    UPI-SOWBHAGYA AND CO-PAYTM-46071647VDQM@PTYS-YESB0PTMUPI-102903326713-UPI        0000102903326713                                    UPI-SOWBHAGYA AND CO-PAYTM-46071647VDQM@PTYS-YESB0PTMUPI-102903326713-UPI    -486.81   debit  HDFC
262 2025-04-09                                      UPI-DOMINOS PIZZA-DOMINOSPIZZAONLINE@PTYBL-YESB0PTMUPI-102903492513-UPI        0000102903492513                                      UPI-DOMINOS PIZZA-DOMINOSPIZZAONLINE@PTYBL-YESB0PTMUPI-102903492513-UPI     -51.45   debit  HDFC
263 2025-04-10                                                     UPI-RAGHU  M-Q492421884@YBL-YESB0YBLUPI-102916206877-UPI        0000102916206877                                                     UPI-RAGHU  M-Q492421884@YBL-YESB0YBLUPI-102916206877-UPI     -48.00   debit  HDFC
264 2025-04-10                                UPI-DOMINOS PIZZA-DOMINOSPIZZA.41650421@HDFCBANK-HDFC0MERUPI-102957129883-UPI        0000102957129883                                UPI-DOMINOS PIZZA-DOMINOSPIZZA.41650421@HDFCBANK-HDFC0MERUPI-102957129883-UPI    -102.90   debit  HDFC
265 2025-04-11                                           UPI-BLOSSOM BOOK HOUSE-Q639989935@YBL-YESB0YBLUPI-102973776961-UPI        0000102973776961                                           UPI-BLOSSOM BOOK HOUSE-Q639989935@YBL-YESB0YBLUPI-102973776961-UPI    -730.00   debit  HDFC
266 2025-04-11                                     UPI-EMPIRE GIFTS CHURCH -PAYTMQR60V49C@PTYS-YESB0PTMUPI-102974125849-UPI        0000102974125849                                     UPI-EMPIRE GIFTS CHURCH -PAYTMQR60V49C@PTYS-YESB0PTMUPI-102974125849-UPI      -5.00   debit  HDFC
267 2025-04-11                                                                                                         AUTO        0000103013029726                                              UPI-K MUBARAK-7411596801@NAVIAXIS-AIRP0000001-103013029726-AUTO    -439.00   debit  HDFC
268 2025-04-13                                                                                                         EIDI        0000103105299348                                           UPI-ASNA ZAINAB-ASNAZAINAB101@OKAXIS-BARB0VJVIJB-103105299348-EIDI    -300.00   debit  HDFC
269 2025-04-13                                                                                                         EIDI        0000103105316898                                     UPI-ARIBA  TABASSUM-ARIBA.TABASSUM17@OKSBI-BARB0VJVIJB-103105316898-EIDI    -300.00   debit  HDFC
270 2025-04-13                                                                                           HALLI MANE GROUNDN        0000103109837962                                   UPI-SHEETHAL  R-Q104166749@YBL-YESB0YBLUPI-103109837962-HALLI MANE GROUNDN    -760.00   debit  HDFC
271 2025-04-14                                         UPI-SRI VIRINCHI VENTURE-Q302946503@YBL-YESB0YBLUPI-103140466335-UPI        0000103140466335                                         UPI-SRI VIRINCHI VENTURE-Q302946503@YBL-YESB0YBLUPI-103140466335-UPI    -100.00   debit  HDFC
272 2025-04-16                          UPI-BANGALORE METRO RAIL-ENGLISH.BMRC.PAYU@INDUS-INDB0MERCHA-103294693197-UPIINTENT        0000103294693197                          UPI-BANGALORE METRO RAIL-ENGLISH.BMRC.PAYU@INDUS-INDB0MERCHA-103294693197-UPIINTENT     -50.00   debit  HDFC
273 2025-04-17                                     UPI-TACO BELL GOPALAN IN-PAYTM-3606629@PTYS-YESB0PTMUPI-103343210636-UPI        0000103343210636                                     UPI-TACO BELL GOPALAN IN-PAYTM-3606629@PTYS-YESB0PTMUPI-103343210636-UPI    -205.00   debit  HDFC
274 2025-04-17                                                                          IB BILLPAY DR-HDFC97-361010XXXX8278        NB17223140019010                                                                          IB BILLPAY DR-HDFC97-361010XXXX8278   -9748.00   debit  HDFC
275 2025-04-18                          UPI-AYESHA THAHNIYATH SA-9945178600@YBL-HDFC0000365-672885762989-PAYMENT FROM PHONE        0000672885762989                          UPI-AYESHA THAHNIYATH SA-9945178600@YBL-HDFC0000365-672885762989-PAYMENT FROM PHONE    3000.00  credit  HDFC
276 2025-04-18                                UPI-TASMIYA KOUSER-Q942933398@YBL-YESB0YBLUPI-268207414476-PAYMENT FROM PHONE        0000268207414476                                UPI-TASMIYA KOUSER-Q942933398@YBL-YESB0YBLUPI-268207414476-PAYMENT FROM PHONE    -150.00   debit  HDFC
277 2025-04-18                                UPI-JUNYS-JUNYS.42794234@HDFCBANK-HDFC0MERUPI-575772688946-PAYMENT FROM PHONE        0000575772688946                                UPI-JUNYS-JUNYS.42794234@HDFCBANK-HDFC0MERUPI-575772688946-PAYMENT FROM PHONE    -231.00   debit  HDFC
278 2025-04-18                                   UPI-NEMAN  LAMA-Q173673632@YBL-YESB0YBLUPI-407630059175-PAYMENT FROM PHONE        0000407630059175                                   UPI-NEMAN  LAMA-Q173673632@YBL-YESB0YBLUPI-407630059175-PAYMENT FROM PHONE    -130.00   debit  HDFC
279 2025-04-18  UPI-BINNY MILL ROAD GANG-BINNYMILLROADGANGANA.63471968@HDFCBANK-HDFC0MERUPI-357137799602-PAYMENT FROM PHONE        0000357137799602  UPI-BINNY MILL ROAD GANG-BINNYMILLROADGANGANA.63471968@HDFCBANK-HDFC0MERUPI-357137799602-PAYMENT FROM PHONE    -291.00   debit  HDFC
280 2025-04-18                                   UPI-VIJAY KUMAR-Q339381323@YBL-YESB0YBLUPI-536955977806-PAYMENT FROM PHONE        0000536955977806                                   UPI-VIJAY KUMAR-Q339381323@YBL-YESB0YBLUPI-536955977806-PAYMENT FROM PHONE    -150.00   debit  HDFC
281 2025-04-18                                                                                                    MILK DIDI        0000520386022560                                    UPI-DEEPAK J V-PAYTMQR1BSDW98PHY@PAYTM-YESB0PTMUPI-520386022560-MILK DIDI     -54.00   debit  HDFC
282 2025-04-18         UPI-N RAVI PRATHAP-PAYTMQR281005050101TJ504JQV3TYA@PAYTM-YESB0PTMUPI-470507638366-PAYMENT FROM PHONE        0000470507638366         UPI-N RAVI PRATHAP-PAYTMQR281005050101TJ504JQV3TYA@PAYTM-YESB0PTMUPI-470507638366-PAYMENT FROM PHONE     -42.00   debit  HDFC
283 2025-04-20                                                                                                         EGGS        0000486485152081                                             UPI-SYED SHABAZ-PAYTMQR6A9667@PTYS-YESB0PTMUPI-486485152081-EGGS    -155.00   debit  HDFC
284 2025-04-21                        UPI-RAKSHIT SHIRISH RUDR-8904637770-2@AXL-UTIB0004071-904596640071-PAYMENT FROM PHONE        0000904596640071                        UPI-RAKSHIT SHIRISH RUDR-8904637770-2@AXL-UTIB0004071-904596640071-PAYMENT FROM PHONE    3915.00  credit  HDFC
285 2025-04-21                        UPI-RAKSHIT SHIRISH RUDR-8904637770-2@AXL-UTIB0004071-764194542506-PAYMENT FROM PHONE        0000764194542506                        UPI-RAKSHIT SHIRISH RUDR-8904637770-2@AXL-UTIB0004071-764194542506-PAYMENT FROM PHONE     250.00  credit  HDFC
286 2025-04-21                                                                                                   STATIONERY        0000499190366757                            UPI-JOGARAM M PUROHIT-PAYTMQR10VBBBZ4WE@PAYTM-YESB0PTMUPI-499190366757-STATIONERY     -16.00   debit  HDFC
287 2025-04-22                                                                                                      OUTSIDE        0000595628697586                                                UPI-TAE-9986944228@OKBIZAXIS-UTIB0000553-595628697586-OUTSIDE    -144.00   debit  HDFC
288 2025-04-23                             UPI-SRINIDHI VAIBHAVA-Q813728743@YBL-YESB0YBLUPI-559022597047-PAYMENT FROM PHONE        0000559022597047                             UPI-SRINIDHI VAIBHAVA-Q813728743@YBL-YESB0YBLUPI-559022597047-PAYMENT FROM PHONE    -435.00   debit  HDFC
289 2025-04-23                                                                              POS 416021XXXXXX3309 RETAIL  CC        0000511310012657                                                                              POS 416021XXXXXX3309 RETAIL  CC     -33.00   debit  HDFC
290 2025-04-25                          UPI-SRI NEW A B R XEROX -Q356440634@YBL-YESB0YBLUPI-157036564894-PAYMENT FROM PHONE        0000157036564894                          UPI-SRI NEW A B R XEROX -Q356440634@YBL-YESB0YBLUPI-157036564894-PAYMENT FROM PHONE     -20.00   debit  HDFC
291 2025-04-26                                UPI-VYKUNTAM GROUP-Q888935573@YBL-YESB0YBLUPI-890830820158-PAYMENT FROM PHONE        0000890830820158                                UPI-VYKUNTAM GROUP-Q888935573@YBL-YESB0YBLUPI-890830820158-PAYMENT FROM PHONE    -130.00   debit  HDFC
292 2025-04-26               UPI-MR  VENKATESWARA RAO-BHARATPE.90072193806@FBPE-FDRL0001382-103805946530-PAY TO BHARATPE ME        0000103805946530               UPI-MR  VENKATESWARA RAO-BHARATPE.90072193806@FBPE-FDRL0001382-103805946530-PAY TO BHARATPE ME   -1104.00   debit  HDFC
293 2025-04-27                                                                            ME DC SI 416021XXXXXX3309 NETFLIX        0000511603748251                                                                            ME DC SI 416021XXXXXX3309 NETFLIX    -649.00   debit  HDFC
294 2025-04-29                      UPI-WELCOME PROVISION ST-PAYTMQR62M0QI@PTYS-YESB0PTMUPI-192677158640-PAYMENT FROM PHONE        0000192677158640                      UPI-WELCOME PROVISION ST-PAYTMQR62M0QI@PTYS-YESB0PTMUPI-192677158640-PAYMENT FROM PHONE     -95.00   debit  HDFC
295 2025-04-29   UPI-JUICE JUNCTION ST MA-PAYTMQR28100505010193VN0ZYXLQYY@PAYTM-YESB0PTMUPI-528737144265-PAYMENT FROM PHONE        0000528737144265   UPI-JUICE JUNCTION ST MA-PAYTMQR28100505010193VN0ZYXLQYY@PAYTM-YESB0PTMUPI-528737144265-PAYMENT FROM PHONE     -90.00   debit  HDFC
296 2025-04-29                                                                                           JIO20BR000C590UCG2        0000563794934858                            UPI-RELIANCE JIO INFOCOM-JIO@CITIBANK-CITI0RTGSMI-563794934858-JIO20BR000C590UCG2     -19.00   debit  HDFC
297 2025-04-30                                                                                                           HL        0000830200519463                                                       UPI-N  USHA-8073545525@YBL-SBIN0004926-830200519463-HL    -500.00   debit  HDFC
298 2025-04-30                                                                                                       PETROL        0000104048192410                                  UPI-RAGHUVEER FUEL SERVI-PAYTMQR60GM54@PTYS-YESB0PTMUPI-104048192410-PETROL    -516.00   debit  HDFC
299 2025-05-01                                                                                          SALARY FOR APR-2025        0000504305404133                                                                                          SALARY FOR APR-2025   86931.00  credit  HDFC
300 2025-05-02                           UPI-SPAR HYPERMARKETS-LANDMARKSPAR@YBL-YESB0YBLUPI-104120205765-PAYMENT FOR PINE43        0000104120205765                           UPI-SPAR HYPERMARKETS-LANDMARKSPAR@YBL-YESB0YBLUPI-104120205765-PAYMENT FOR PINE43   -1023.00   debit  HDFC
301 2025-05-02                                       UPI-N  USHA-8073545525@YBL-SBIN0004926-572206300306-PAYMENT FROM PHONE        0000572206300306                                       UPI-N  USHA-8073545525@YBL-SBIN0004926-572206300306-PAYMENT FROM PHONE     500.00  credit  HDFC
302 2025-05-03                                                                                                    GROCERIES        0000104177019915                                    UPI-M K SUBAIR-PAYTMQR4Z7NLVF6PY@PAYTM-YESB0PTMUPI-104177019915-GROCERIES     -60.00   debit  HDFC
303 2025-05-03                                              UPI-IMRANA BANU-9845864530ARIF@YBL-KARB0000061-104183950626-UPI        0000104183950626                                              UPI-IMRANA BANU-9845864530ARIF@YBL-KARB0000061-104183950626-UPI     -85.00   debit  HDFC
304 2025-05-03                                              REV-UPI-50100738711936-ARBAAZFB26-1@OKHDFCBANK-104183950626-UPI        0000104183950626                                              REV-UPI-50100738711936-ARBAAZFB26-1@OKHDFCBANK-104183950626-UPI      85.00  credit  HDFC
305 2025-05-03                         UPI-ARIF  BASHA-ARIFBASHA4530@OKHDFCBANK-SBIN0004926-111122596611-PAYMENT FROM PHONE        0000111122596611                         UPI-ARIF  BASHA-ARIFBASHA4530@OKHDFCBANK-SBIN0004926-111122596611-PAYMENT FROM PHONE     -85.00   debit  HDFC
306 2025-05-03                                                 UPI-RITA  CHETRY-Q917685957@YBL-YESB0YBLUPI-104211514068-UPI        0000104211514068                                                 UPI-RITA  CHETRY-Q917685957@YBL-YESB0YBLUPI-104211514068-UPI     -70.00   debit  HDFC
307 2025-05-03                UPI-MALABAR GOLD PVT LTD-MALABARGOLDPVTL776.RZP@ICICI-ICIC0DC0099-104221084193-PAYVIARAZORPAY        0000104221084193                UPI-MALABAR GOLD PVT LTD-MALABARGOLDPVTL776.RZP@ICICI-ICIC0DC0099-104221084193-PAYVIARAZORPAY  -10000.00   debit  HDFC
308 2025-05-05                                                                                                          ZIP        0000104322705123                                           UPI-MS ROSHAN  TAILORI-Q188567536@YBL-YESB0YBLUPI-104322705123-ZIP     -27.00   debit  HDFC
309 2025-05-05                                                                                                   STATIONERY        0000104323235153                          UPI-V K MOHAMMED RAFEEQ-PAYTMQRFV3K87RM0G@PAYTM-YESB0PTMUPI-104323235153-STATIONERY     -40.00   debit  HDFC
310 2025-05-05                                     UPI-GOOGLE INDIA DIGITAL-PLAYSTORE@AXISBANK-UTIB0000553-104337904219-UPI        0000104337904219                                     UPI-GOOGLE INDIA DIGITAL-PLAYSTORE@AXISBANK-UTIB0000553-104337904219-UPI     -29.00   debit  HDFC
311 2025-05-06                                        UPI-ANIL KUMAR N-PAYTMQROAVGVBBM6Z@PAYTM-YESB0PTMUPI-104369316364-UPI        0000104369316364                                        UPI-ANIL KUMAR N-PAYTMQROAVGVBBM6Z@PAYTM-YESB0PTMUPI-104369316364-UPI     -20.00   debit  HDFC
312 2025-05-06                                                                                                  OFFICE FOOD        0000104378629051                                UPI-ANIL KUMAR N-PAYTMQROAVGVBBM6Z@PAYTM-YESB0PTMUPI-104378629051-OFFICE FOOD    -155.00   debit  HDFC
313 2025-05-06                                   UPI-MANGLORE STORE-GPAY-11251984158@OKBIZAXIS-UTIB0000553-104391893052-UPI        0000104391893052                                   UPI-MANGLORE STORE-GPAY-11251984158@OKBIZAXIS-UTIB0000553-104391893052-UPI    -135.00   debit  HDFC
314 2025-05-08                       NEFT CR-ICIC0000103-MOHAMMED ARBAAZ SABER-MOHAMMED ARBAAZ SABER-ICICN52025050800805358  ICICN52025050800805358                       NEFT CR-ICIC0000103-MOHAMMED ARBAAZ SABER-MOHAMMED ARBAAZ SABER-ICICN52025050800805358   36185.78  credit  HDFC
315 2025-05-10                       UPI-SMOKY DOCKY KORMANGA-PAYTM.S1GIB7F@PTY-YESB0MCHUPI-379944355540-PAYMENT FROM PHONE        0000379944355540                       UPI-SMOKY DOCKY KORMANGA-PAYTM.S1GIB7F@PTY-YESB0MCHUPI-379944355540-PAYMENT FROM PHONE    -230.00   debit  HDFC
316 2025-05-11                      UPI-STRA AMBUR BIRYANI A-PAYTMQR61DPV3@PTYS-YESB0PTMUPI-184840568519-PAYMENT FROM PHONE        0000184840568519                      UPI-STRA AMBUR BIRYANI A-PAYTMQR61DPV3@PTYS-YESB0PTMUPI-184840568519-PAYMENT FROM PHONE    -190.00   debit  HDFC
317 2025-05-12           NEFT CR-CITI0100000-PAYPAL PAYMENTS PL INR FBO CUR AC-MOHAMMED ARBAAZ SABER-CITIN52025051262524906  CITIN52025051262524906           NEFT CR-CITI0100000-PAYPAL PAYMENTS PL INR FBO CUR AC-MOHAMMED ARBAAZ SABER-CITIN52025051262524906       1.12  credit  HDFC
318 2025-05-12           NEFT CR-CITI0100000-PAYPAL PAYMENTS PL INR FBO CUR AC-MOHAMMED ARBAAZ SABER-CITIN52025051262525140  CITIN52025051262525140           NEFT CR-CITI0100000-PAYPAL PAYMENTS PL INR FBO CUR AC-MOHAMMED ARBAAZ SABER-CITIN52025051262525140       1.13  credit  HDFC
319 2025-05-12                                            IMPS-513213385732-MOHAMMED ASIF NADEEM SABER-ICIC-XXXXXXXX8214-HL        0000513213385732                                            IMPS-513213385732-MOHAMMED ASIF NADEEM SABER-ICIC-XXXXXXXX8214-HL  -50000.00   debit  HDFC
320 2025-05-12                                           UPI-VODAFONE IDEA LIMITE-VIPREVF@HSBC-HSBC0400002-104694758520-UPI        0000104694758520                                           UPI-VODAFONE IDEA LIMITE-VIPREVF@HSBC-HSBC0400002-104694758520-UPI     -99.00   debit  HDFC
321 2025-05-13                                                                                                    HL RETURN        0000549951980768                              UPI-MOHD ASIF NADEEM  SA-ASIFSABER3-2@OKAXIS-SBIN0004926-549951980768-HL RETURN   50000.00  credit  HDFC
322 2025-05-13                                         UPI-SUNITASAINIWOMUKESHS-Q215326451@YBL-YESB0YBLUPI-104756688936-UPI        0000104756688936                                         UPI-SUNITASAINIWOMUKESHS-Q215326451@YBL-YESB0YBLUPI-104756688936-UPI     -35.00   debit  HDFC
323 2025-05-13                                          UPI-MR MUSTHAFA V K-PAYTMQR61EFPZ@PTYS-YESB0PTMUPI-104757509180-UPI        0000104757509180                                          UPI-MR MUSTHAFA V K-PAYTMQR61EFPZ@PTYS-YESB0PTMUPI-104757509180-UPI     -60.00   debit  HDFC
324 2025-05-13                                          UPI-MR MUSTHAFA V K-PAYTMQR61EFPZ@PTYS-YESB0PTMUPI-104757892290-UPI        0000104757892290                                          UPI-MR MUSTHAFA V K-PAYTMQR61EFPZ@PTYS-YESB0PTMUPI-104757892290-UPI     -30.00   debit  HDFC
325 2025-05-14                                                                                                      CRICKET        0000104812061047                                 UPI-DHRUV RATHI-RATHIDHRUV9286-1@OKHDFCBANK-HDFC0001226-104812061047-CRICKET    -400.00   debit  HDFC
326 2025-05-14                          UPI-RAKSHIT SHIRISH RUDR-8904637770@IBL-KARB0000095-225855962397-PAYMENT FROM PHONE        0000225855962397                          UPI-RAKSHIT SHIRISH RUDR-8904637770@IBL-KARB0000095-225855962397-PAYMENT FROM PHONE     300.00  credit  HDFC
327 2025-05-14                                                                          IB BILLPAY DR-HDFC97-361010XXXX8278        NB14234808024005                                                                          IB BILLPAY DR-HDFC97-361010XXXX8278  -98501.00   debit  HDFC
328 2025-05-16                                                                                              QURBANI ADVANCE        0000104894891640                              UPI-KHALEEL AKBAR PASHA-9849892471@YBL-KVBL0004845-104894891640-QURBANI ADVANCE  -60000.00   debit  HDFC
329 2025-05-17                           UPI-SPAR HYPERMARKETS-LANDMARKSPAR@YBL-YESB0YBLUPI-104957086163-PAYMENT FOR PINE45        0000104957086163                           UPI-SPAR HYPERMARKETS-LANDMARKSPAR@YBL-YESB0YBLUPI-104957086163-PAYMENT FOR PINE45    -806.00   debit  HDFC
330 2025-05-17                                                                                                 AMMI TABLETS        0000104957407428                                 UPI-MUHAFIZ KHAN M-PAYTMQR5838D9@PAYTM-YESB0PTMUPI-104957407428-AMMI TABLETS   -1496.00   debit  HDFC
331 2025-05-17                                                                 CASH DEPOSIT BY - ARBAAZ - BANNERGHATTA ROAD         000000000000000                                                                 CASH DEPOSIT BY - ARBAAZ - BANNERGHATTA ROAD   60000.00  credit  HDFC
332 2025-05-18                                      UPI-SANTOSH CHATS-SANTO91108159@BARODAMPAY-BARB0VJINFA-105021738586-UPI        0000105021738586                                      UPI-SANTOSH CHATS-SANTO91108159@BARODAMPAY-BARB0VJINFA-105021738586-UPI     -90.00   debit  HDFC
333 2025-05-18                                      UPI-BOMBAY VADA PAV CENT-PAYTM.S1BKHL4@PTY-YESB0MCHUPI-105026047550-UPI        0000105026047550                                      UPI-BOMBAY VADA PAV CENT-PAYTM.S1BKHL4@PTY-YESB0MCHUPI-105026047550-UPI     -50.00   debit  HDFC
334 2025-05-18     UPI-PRASHANTKUMAR RAJEND-BHARATPE9Z0X7B2I8R887958@YESBANKLTD-YESB0YESUPI-105026564123-PAY TO BHARATPE ME        0000105026564123     UPI-PRASHANTKUMAR RAJEND-BHARATPE9Z0X7B2I8R887958@YESBANKLTD-YESB0YESUPI-105026564123-PAY TO BHARATPE ME     -60.00   debit  HDFC
335 2025-05-18                                        UPI-CAFE ARENA-0798156A0218058.BQR@KOTAK-KKBK0008156-105038239635-UPI        0000105038239635                                        UPI-CAFE ARENA-0798156A0218058.BQR@KOTAK-KKBK0008156-105038239635-UPI    -415.00   debit  HDFC
336 2025-05-19                                                                                                          GAS        0000105075183113                                                 UPI-JOHN BHASKAR-9448514183@YBL-BARB0JAYANA-105075183113-GAS    -900.00   debit  HDFC
337 2025-05-20                                     UPI-FAMOUS 99 VARIETY DO-PAYTMQR6CS45M@PTYS-YESB0PTMUPI-105142384082-UPI        0000105142384082                                     UPI-FAMOUS 99 VARIETY DO-PAYTMQR6CS45M@PTYS-YESB0PTMUPI-105142384082-UPI     -80.00   debit  HDFC
338 2025-05-20                                     UPI-TACO BELL GOPALAN IN-PAYTM-3606629@PTYS-YESB0PTMUPI-105142611742-UPI        0000105142611742                                     UPI-TACO BELL GOPALAN IN-PAYTM-3606629@PTYS-YESB0PTMUPI-105142611742-UPI    -189.00   debit  HDFC
339 2025-05-21                                             UPI-SANDWICH GURU-PAYTM.S1AO8MN@PTY-YESB0MCHUPI-105182834279-UPI        0000105182834279                                             UPI-SANDWICH GURU-PAYTM.S1AO8MN@PTY-YESB0MCHUPI-105182834279-UPI    -160.00   debit  HDFC
340 2025-05-21                                             UPI-SANDWICH GURU-PAYTM.S1AO8MN@PTY-YESB0MCHUPI-105184147255-UPI        0000105184147255                                             UPI-SANDWICH GURU-PAYTM.S1AO8MN@PTY-YESB0MCHUPI-105184147255-UPI     -65.00   debit  HDFC
341 2025-05-23                                          UPI-M K SUBAIR-PAYTMQR4Z7NLVF6PY@PAYTM-YESB0PTMUPI-105257951159-UPI        0000105257951159                                          UPI-M K SUBAIR-PAYTMQR4Z7NLVF6PY@PAYTM-YESB0PTMUPI-105257951159-UPI    -120.00   debit  HDFC
342 2025-05-23                                                                                                        X RAY        0000105292231638                                          UPI-JSD TECHNO DENTAL-Q087826627@YBL-YESB0YBLUPI-105292231638-X RAY    -400.00   debit  HDFC
343 2025-05-24                                          UPI-UDUPISAGAR-PAYTMQR1W5S4CMLPJ@PAYTM-YESB0PTMUPI-105311632393-UPI        0000105311632393                                          UPI-UDUPISAGAR-PAYTMQR1W5S4CMLPJ@PAYTM-YESB0PTMUPI-105311632393-UPI    -130.00   debit  HDFC
344 2025-05-24                         UPI-SUSHMITHA B R-PAYTMQR281005050101VK8GOC02JT4N@PAYTM-YESB0PTMUPI-105326486115-UPI        0000105326486115                         UPI-SUSHMITHA B R-PAYTMQR281005050101VK8GOC02JT4N@PAYTM-YESB0PTMUPI-105326486115-UPI    -120.00   debit  HDFC
345 2025-05-24      UPI-AIRTEL DIRECT UPI FI-AIRTELDIRECTUPI836382.RZP@RXAIRTEL-AIRP0000011-105329538596-AIRTELDIRECTUPIFIX        0000105329538596      UPI-AIRTEL DIRECT UPI FI-AIRTELDIRECTUPI836382.RZP@RXAIRTEL-AIRP0000011-105329538596-AIRTELDIRECTUPIFIX   -2500.00   debit  HDFC
346 2025-05-24                                                                                                      COCONUT        0000105330094698                                          UPI-MURUGESAN S-PAYTMQR6CSDVE@PTYS-YESB0PTMUPI-105330094698-COCONUT    -100.00   debit  HDFC
347 2025-05-25                                                                                                      HAIRCUT        0000105367733093                                      UPI-SHANE ALAM-PAYTMQRCJY2037KMB@PAYTM-YESB0PTMUPI-105367733093-HAIRCUT    -250.00   debit  HDFC
348 2025-05-25                          UPI-BANGALORE METRO RAIL-ENGLISH.BMRC.PAYU@INDUS-INDB0MERCHA-105370675875-UPIINTENT        0000105370675875                          UPI-BANGALORE METRO RAIL-ENGLISH.BMRC.PAYU@INDUS-INDB0MERCHA-105370675875-UPIINTENT     -50.00   debit  HDFC
349 2025-05-25                                                            UPI-ANSHU-ANSUAT@IBL-KKBK0008072-105381912632-UPI        0000105381912632                                                            UPI-ANSHU-ANSUAT@IBL-KKBK0008072-105381912632-UPI     -40.00   debit  HDFC
350 2025-05-25                                              REV-UPI-50100738711936-ARBAAZFB26-1@OKHDFCBANK-105381912632-UPI        0000105381912632                                              REV-UPI-50100738711936-ARBAAZFB26-1@OKHDFCBANK-105381912632-UPI      40.00  credit  HDFC
351 2025-05-25                                               UPI-KK ADARSH OPUS-Q930535797@YBL-YESB0YBLUPI-105382546976-UPI        0000105382546976                                               UPI-KK ADARSH OPUS-Q930535797@YBL-YESB0YBLUPI-105382546976-UPI   -1476.00   debit  HDFC
352 2025-05-25                              UPI-MOHAMMED SAFIULLAH-MOHAMMEDSAFIULLAH1997@OKSBI-KKBK0008065-514588440045-UPI        0000514588440045                              UPI-MOHAMMED SAFIULLAH-MOHAMMEDSAFIULLAH1997@OKSBI-KKBK0008065-514588440045-UPI     700.00  credit  HDFC
353 2025-05-27                                                                            ME DC SI 416021XXXXXX3309 NETFLIX        0000514603272891                                                                            ME DC SI 416021XXXXXX3309 NETFLIX    -649.00   debit  HDFC
