         Date                                                                                                    Narration            Chq./Ref.No.     Withdrawal Amt.        Deposit Amt.
0    ********                                                                           **********************************            ************  ******************  ******************
1    01/08/24                                                                                          SALARY FOR JUL-2024        0000407317042777                 NaN              111468
2    02/08/24                                                                  ATW-416021XXXXXX3309-S1ACBL06-BANGALORE-URB        0000000000006010                5000                 NaN
3    02/08/24                                                                        POS 416021XXXXXX3309 SULTHAN GOLD PRI        0000000000000790               12700                 NaN
4    06/08/24                      NEFT DR-ICIC0000401-MOHAMMED ARBAAZ SABER-NETBANK, MUM-N219243191633297-TOP UP AND GOLD        N219243191633297               25000                 NaN
5    20/08/24                               NEFT DR-ICIC0000401-MOHAMMED ARBAAZ SABER-NETBANK, MUM-N233243217049429-TOP UP        N233243217049429               10000                 NaN
6    26/08/24                       UPI-M POONAMCHAND JEWELL-MPOONAMCHANDJEWELLER.67107386@HDFCBANK-NA-423928431944-PEARLS        0000423928431944                4000                 NaN
7    28/08/24                               NEFT DR-ICIC0000401-MOHAMMED ARBAAZ SABER-NETBANK, MUM-N241243230510052-TOP UP        N241243230510052               15000                 NaN
8    01/09/24                                                                                          SALARY FOR AUG-2024        0000408300779836                 NaN               75244
9    03/09/24                                             IMPS-424718371876-MOHAMMED ARBAAZ SABER-ICIC-XXXXXXXX7322-STOCKS        0000424718371876               80000                 NaN
10   11/09/24                     IMPS-425500734337-CASHFREE PAYMENTS IN-IDFB-XXXXXXX6991-HYPERVERGETECHNOLOGIESPRIVATELIM        0000425500734337                 NaN                   1
11   16/09/24                                        UPI-ANGEL LTD NSE-ANGELONENSE@HDFCBANK-NA-426021473387-PAYINGANGELONE        0000426021473387                9000                 NaN
12   18/09/24                             UPI-ANGEL LTD NSE-ANGELONENSE@HDFCBANK-HDFC0000001-426229346660-PAYING ANGEL ONE        0000426229346660               13500                 NaN
13   30/09/24                          UPI-MOHAMMED ARBAAZ SABE-9573896317@IBL-ICIC0000401-427451211539-PAYMENT FROM PHONE        0000427451211539                 NaN               14784
14   01/10/24                                                                               INTEREST PAID TILL 30-SEP-2024         000000000000000                 NaN                 245
15   01/10/24                                                                                          SALARY FOR SEP-2024        0000409306481605                 NaN               80494
16   01/10/24                        IMPS-427523427231-AAHCB4709MPAY10SER-UTIB-XXXXXXXXXXX9444-PAY10SERVICESPRIVATELIMITED        0000427523427231                 NaN                8802
17   02/10/24                        IMPS-427613481815-AAHCB4709MPAY10SER-UTIB-XXXXXXXXXXX9444-PAY10SERVICESPRIVATELIMITED        0000427613481815                 NaN                8799
18   05/10/24                                                                                    ANGEL ONE LIMI-1036987669        0000410054625975                 NaN               22500
19   18/10/24                           UPI-RIGHT CHOICE TRADING-AURASTYLISH@YESBANK-YESB0000016-429290945714-PAY WITH UPI        0000429290945714               44661                 NaN
20   27/11/24                                                       UPI-AKBAR-PAYTMQR5CH8DQ@PTYS-NA-433297029283-GROCERIES        0000433297029283                  30                 NaN
21   29/11/24                                                                            ME DC SI 416021XXXXXX3309 NETFLIX        0000433413136037                 649                 NaN
22   29/11/24                                                                             CRV POS 416021******3309 NETFLIX         000000000000000                 NaN                   2
23   01/12/24                                                                                          SALARY FOR NOV-2024        0000411282087237                 NaN               81194
24   01/12/24                                        UPI-BYND COURTYARD LLP-POS.11313857@INDUS-NA-433613628987-BEYOND BRUG        0000433613628987                1575                 NaN
25   02/12/24                                                UPI-A L M D VEGETABLES-Q181919503@YBL-NA-433721197049-VEGGIES        0000433721197049                 120                 NaN
26   02/12/24                                UPI-BI BI AYESHA-BHARATPE.90069115085@FBPE-NA-433721221882-PAY TO BHARATPE ME        0000433721221882                 260                 NaN
27   02/12/24                                                        UPI-SYED   SHABAZ-Q334202708@YBL-NA-433721236697-EGGS        0000433721236697                 195                 NaN
28   02/12/24                                                 UPI-KABEER  ULLA-9886152948-2@IBL-NA-433722167176-STATIONARY        0000433722167176                  35                 NaN
29   03/12/24                                                 UPI-G SHASHIKALA N MAIYY-Q239352826@YBL-NA-433824623429-FOOD        0000433824623429                 150                 NaN
30   04/12/24                                                UPI-A L M D VEGETABLES-Q181919503@YBL-NA-433927987616-VEGGIES        0000433927987616                  20                 NaN
31   04/12/24                                                UPI-FAYAQ ULLA SHARIFF-Q966259036@YBL-NA-433929426221-CHICKEN        0000433929426221                  95                 NaN
32   05/12/24                                                 UPI-AL BAIK-ALBAIK.63084636@HDFCBANK-NA-434035801509-CHICKEN        0000434035801509                 281                 NaN
33   06/12/24                                        UPI-ANGEL LTD NSE-ANGELONENSE@HDFCBANK-NA-434137679532-PAYINGANGELONE        0000434137679532                6000                 NaN
34   07/12/24                                                      UPI-KIRAN H A-PAYTMQR5DH3D4@PTYS-NA-434242615774-PETROL        0000434242615774              512.54                 NaN
35   07/12/24                                                 UPI-M K SUBAIR-PAYTMQRRD8VO9W009@PAYTM-NA-434242632450-YEAST        0000434242632450                  50                 NaN
36   07/12/24                                                                        POS 416021XXXXXX3309 APOLLO PHARMACIE        0000434220712964                 220                 NaN
37   08/12/24                                                                        POS 416021XXXXXX3309 AMAZON GIFT CARD        0000434314377873                 709                 NaN
38   09/12/24                                                    UPI-KRISHNAVENI-PAYTMQR5W2390@PTYS-NA-434450957074-FLOWER        0000434450957074                  60                 NaN
39   10/12/24                                         UPI-FAYAQ ULLA SHARIFF-Q122828579@YBL-NA-434552877497-CHICKEN BREAST        0000434552877497                  90                 NaN
40   10/12/24                                              UPI-A L M D VEGETABLES-Q248353038@YBL-NA-434553235337-GROCERIES        0000434553235337                 175                 NaN
41   10/12/24                                              UPI-A L M D VEGETABLES-Q297253553@YBL-NA-434553275564-GROCERIES        0000434553275564                  30                 NaN
42   12/12/24        UPI-INDIAN RAILWAY CATER-INDIANRAILWAYCATERIYIM.RZP@MAIRTEL-AIRP0000001-434701010125-PAY VIA RAZORPAY        0000434701010125               793.6                 NaN
43   14/12/24                                                UPI-SIDDHESH KARTHIC-9606277733@HDFCBANK-NA-434969748709-FOOD        0000434969748709                 552                 NaN
44   14/12/24            UPI-MINI GOLF MADNESS-MINIGOLFMADNESS422597.RZP@RXAIRTEL-AIRP0000011-434919470618-MINIGOLFMADNESS        0000434919470618                1198                 NaN
45   15/12/24                                                       UPI-AMREEN TAJ-PAYTMQR61DFJV@PTYS-NA-435075486174-FOOD        0000435075486174                 205                 NaN
46   15/12/24                                         UPI-MOHAMMED KABEER PASH-PAYTMQR5XFO3V@PTYS-NA-435076732542-SHEERMAL        0000435076732542                  90                 NaN
47   16/12/24                                                  UPI-NASRIN TAJ-PAYTMQR5ETSXC@PTYS-NA-435178106059-GROCERIES        0000435178106059                  20                 NaN
48   16/12/24                                                 UPI-MEGHANA FOODS INDIRA-Q405092903@YBL-NA-435180427578-FOOD        0000435180427578                 900                 NaN
49   17/12/24                                               UPI-JOHN BHASKAR-JOHNBASKARSJOHN-1@OKICICI-NA-435284627662-GAS        0000435284627662                 850                 NaN
50   17/12/24                                            UPI-STRA AMBUR BIRYANI A-PAYTMQR10MBHK@PAYTM-NA-435285591986-FOOD        0000435285591986                  40                 NaN
51   17/12/24                                UPI-AVENUE SUPERMARTS LT-PINEDMARTKA@ICICI-NA-435285664046-GROCERIES AND BOOK        0000435285664046               496.5                 NaN
52   17/12/24           UPI-AVENUE FOOD PLAZA PV-AVENUEFOODPLAZAPVTLT.42422368@HDFCBANK-NA-435285685190-GENERATING DYNAMIC        0000435285685190                  35                 NaN
53   17/12/24                                             UPI-STRA AMBUR BIRYANI A-PAYTMQR61DPV3@PTYS-NA-435285722553-FOOD        0000435285722553                  40                 NaN
54   18/12/24                 UPI-JIO PREPAID RECHARGE-PAYTM-JIOMOBILITY@PTYBL-YESB0PTMUPI-435327813342-OIDBR000BKHTE8I@RE        0000435327813342                 299                 NaN
55   18/12/24                                                        UPI-ELANGO R-PAYTMQR10F7MB@PAYTM-NA-435387920252-FOOD        0000435387920252                 180                 NaN
56   18/12/24      UPI-INDIAN RAILWAY CATER-INDIANRAILWAYCA848104.RZP@RXAIRTEL-AIRP0000011-435311289286-INDIANRAILWAYCATER        0000435311289286              407.25                 NaN
57   18/12/24                        UPI-SAYED ULFATH HUSSAIN-7829390702-2@AXL-CNRB0000033-225687217200-SAYED BHAI TRAIN T        0000225687217200                 NaN              407.25
58   20/12/24                                       UPI-N  USHA-8073545525@YBL-SBIN0004926-001677109096-PAYMENT FROM PHONE        0000001677109096                 NaN                 500
59   20/12/24                              NEFT DR-ICIC0001769-QURRATH UL AIN NUZHATH-NETBANK, MUM-N355243464871319-MOTHER        N355243464871319               25000                 NaN
60   20/12/24                                             UPI-HOPCOMS 76-PAYTMQR1DYP3VT88P@PAYTM-NA-435500894455-GROCERIES        0000435500894455                  20                 NaN
61   20/12/24                                                   UPI-BROASTKHAN-PAYTM-80087713@PTYS-NA-435501336845-OUTSIDE        0000435501336845                 210                 NaN
62   20/12/24                                         UPI-SMOKY DOCKY-VYAPAR.169048628271@HDFCBANK-NA-435501672875-OUTSIDE        0000435501672875                 449                 NaN
63   20/12/24                                                 UPI-PUMP 3 GCHINNAPPA RE-Q491501974@YBL-NA-435501866213-FUEL        0000435501866213                 110                 NaN
64   21/12/24      UPI-INDIAN RAILWAY CATER-INDIANRAILWAYCATERIYIM.RZP@MAIRTEL-AIRP0000001-435617978139-REFUND FOR UPI RRN        0000435617978139                 NaN                 705
65   21/12/24                                        UPI-WELCOME PROVISION ST-PAYTMQR5WQ97G@PTYS-NA-435606956444-GROCERIES        0000435606956444                 152                 NaN
66   22/12/24                                        UPI-WELCOME PROVISION ST-PAYTMQR5WQ97G@PTYS-NA-435708686868-GROCERIES        0000435708686868                  68                 NaN
67   22/12/24                                             UPI-BOWRING SERVICE STAT-PAYTMQR5DB1WT@PTYS-NA-435709885409-FUEL        0000435709885409                 100                 NaN
68   22/12/24                                             UPI-BOBA TREE-BOBATREE.69357284@HDFCBANK-NA-435710000565-OUTSIDE        0000435710000565                 263                 NaN
69   22/12/24                                     UPI-KEBAPCI-KEBAPCI.42532786@HDFCBANK-NA-435710967423-GENERATING DYNAMIC        0000435710967423                2465                 NaN
70   23/12/24                                        UPI-RAHEEMA RAFATH  -ALTAFZABI@OKSBI-SBIN0040374-435830911509-CHARITY        0000435830911509                1000                 NaN
71   24/12/24                                 UPI-GEDDIT CONVENIENCE P-GEDDITZEPTO.BDPG@ICICI-ICIC0DC0099-435941508795-UPI        0000435941508795              182.14                 NaN
72   24/12/24            UPI-MALABAR GOLD PVT LTD-MALABARGOLDPVTLTD.RZP@AXISBANK-UTIB0000100-474852533594-PAY VIA RAZORPAY        0000474852533594               10000                 NaN
73   24/12/24                                             UPI-ZEPTONOW-ZEPTONOW.ESBZ@HDFCBANK-HDFC0001794-435954057361-UPI        0000435954057361              364.14                 NaN
74   24/12/24                                  UPI-SHASHI KIRAN-SHASHI.YOURS-1@OKICICI-ICIC0000252-435954177795-FOR PANDIT        0000435954177795                 500                 NaN
75   24/12/24                                        UPI-MOHD  JAMIL-MOHAMMEDJAMEEL2412@OKSBI-SBIN0008189-435965897010-UPI        0000435965897010                1000                 NaN
76   24/12/24                                              REV-UPI-50100738711936-ARBAAZFB26-1@OKHDFCBANK-435965897010-UPI        0000435965897010                 NaN                1000
77   24/12/24                                        UPI-MOHD  JAMIL-MOHAMMEDJAMEEL2412@OKSBI-SBIN0008189-435966376602-UPI        0000435966376602                1000                 NaN
78   25/12/24                                          UPI-SUHEL PASHA-SIGNDESIGN74-1@OKICICI-CNRB0000033-436089745792-UPI        0000436089745792                 450                 NaN
79   26/12/24                                     UPI-A L M D VEGETABLES-Q248353038@YBL-YESB0YBLUPI-436128393644-GROCERIES        0000436128393644                  50                 NaN
80   26/12/24                                        UPI-MOHD  JAMIL-MOHAMMEDJAMEEL2412@OKSBI-SBIN0008189-436136522499-UPI        0000436136522499                 NaN                1000
81   26/12/24                               UPI-MUHAMMED ABDUL JALEE-PAYTMQR5MUGOQ@PTYS-YESB0PTMUPI-436163305154-GROCERIES        0000436163305154                  70                 NaN
82   26/12/24                             UPI-SYED ZAMEER-BAJAJPAY.6879729.04984714@INDUS-INDB0MERCHA-436163981024-OUTSIDE        0000436163981024                 350                 NaN
83   27/12/24                                                                            ME DC SI 416021XXXXXX3309 NETFLIX        0000436102698546                 649                 NaN
84   27/12/24                                  UPI-CHANDRAKALA BANDE-PAYTMQR5DL0U2@PTYS-YESB0PTMUPI-436283684010-GROCERIES        0000436283684010                  50                 NaN
85   28/12/24                                   UPI-RADHAKRISHNAN MAYAMO-Q075876209@YBL-YESB0YBLUPI-436312495049-GROCERIES        0000436312495049                 120                 NaN
86   28/12/24                               UPI-BARNABAS MOSES  A  J-9884003193@AXL-SBIN0006711-436313256545-YELAGIRI STAY        0000436313256545                5000                 NaN
87   28/12/24                                            UPI-MUNEER SWEETS-PAYTMQR5EVSTW@PTYS-YESB0PTMUPI-436325640424-UPI        0000436325640424                  40                 NaN
88   29/12/24                                         UPI-MURUGAN IDLI SHOP  V-Q021825439@YBL-YESB0YBLUPI-436458492508-UPI        0000436458492508                  75                 NaN
89   01/01/25                                                                               INTEREST PAID TILL 31-DEC-2024         000000000000000                 NaN                1235
90   01/01/25                                                                                          SALARY FOR DEC-2024        0000412305442697                 NaN               81874
91   01/01/25                              UPI-ANGEL ONE LIMITED-ANGELONENSE@ICICI-ICIC0DC0099-536775650296-PAYINGANGELONE        0000536775650296               12000                 NaN
92   02/01/25                              UPI-ANGEL ONE LIMITED-ANGELONENSE@ICICI-ICIC0DC0099-500249656752-PAYINGANGELONE        0000500249656752               10000                 NaN
93   02/01/25                              UPI-ANGEL ONE LIMITED-ANGELONENSE@ICICI-ICIC0DC0099-500249666734-PAYINGANGELONE        0000500249666734                1000                 NaN
94   02/01/25              UPI-MALABAR GOLD PVT LTD-MALABARGOLDPVTLTD.RZP@AXISBANK-UTIB0000100-500249760990-PAYVIARAZORPAY        0000500249760990               10000                 NaN
95   02/01/25                                                                        POS 416021XXXXXX3309 AMAZON PAY INDIA        0000500216589234                1313                 NaN
96   03/01/25                                             UPI-MOHAMMAD  ZUBAIR-Q604160105@YBL-YESB0YBLUPI-500325825533-UPI        0000500325825533                  79                 NaN
97   03/01/25                                             UPI-MOHAMMAD  ZUBAIR-Q604160105@YBL-YESB0YBLUPI-500327769022-UPI        0000500327769022                 345                 NaN
98   03/01/25                                       UPI-FAYAQ ULLA SHARIFF-Q543368046@YBL-YESB0YBLUPI-500328890181-CHICKEN        0000500328890181                 240                 NaN
99   04/01/25                                                                                    ANGEL ONE LIMI-1040413590        0000501045867792                 NaN              613.58
100  04/01/25                                        UPI-MAHBOOB  PHASHA-Q378157141@YBL-YESB0YBLUPI-500452027624-GROCERIES        0000500452027624                 100                 NaN
101  04/01/25                          UPI-LAKEVIEW MILKBAR-LAKEVIEWMILKBAR.64034199@HDFCBANK-HDFC0000001-500463283824-UPI        0000500463283824                 638                 NaN
102  05/01/25                                     UPI-EAST END SERVICE STN-PAYTM-208086@PTYS-YESB0PTMUPI-500586674453-FUEL        0000500586674453                3700                 NaN
103  05/01/25                                               UPI-IRCTC UTS-PAYTM-8796946@PTYBL-YESB0PTMUPI-500586701600-UPI        0000500586701600                  10                 NaN
104  05/01/25                                           UPI-RAMESH KUMAR-Q559456426@YBL-YESB0YBLUPI-500515955318-GROCERIES        0000500515955318                 100                 NaN
105  05/01/25                                         UPI-MOHAMMAD  ZUBAIR-Q604160105@YBL-YESB0YBLUPI-500521680817-OUTSIDE        0000500521680817                 219                 NaN
106  08/01/25                     UPI-NIRAJKUMARSHAW-BHARATPE.90072250582@FBPE-FDRL0001382-500853698837-PAY TO BHARATPE ME        0000500853698837                  20                 NaN
107  08/01/25                                                UPI-PRAJWAL N-Q069144038@YBL-YESB0YBLUPI-500861234680-OUTSIDE        0000500861234680                 360                 NaN
108  10/01/25                                        UPI-SWADISHTA FOODS-PAYTMQR64CGJW@PTYS-YESB0PTMUPI-501040081263-LUNCH        0000501040081263                1201                 NaN
109  10/01/25                                    UPI-MOHAMMED ASIF NADEEM-ASIFSABER3-1@OKAXIS-UTIB0001513-501049138896-UPI        0000501049138896               50000                 NaN
110  10/01/25                                    UPI-MOHAMMED ASIF NADEEM-ASIFSABER3-1@OKAXIS-UTIB0001513-501049216590-UPI        0000501049216590               48000                 NaN
111  11/01/25                                                       UPI-YOGESH-Q093100771@YBL-YESB0YBLUPI-501190090170-UPI        0000501190090170                  60                 NaN
112  11/01/25                                    UPI-NAVKAR MEDICALS-POS.11328265@INDUS-INDB0MERCHA-501191687316-MEDICINES        0000501191687316                  52                 NaN
113  11/01/25                                          UPI-NAVKAR MEDICALS-POS.11328265@INDUS-INDB0MERCHA-501191716513-UPI        0000501191716513                  40                 NaN
114  12/01/25                                             UPI-JAVEED PASHA-PAYTMQR617UQJ@PTYS-YESB0PTMUPI-501256158315-UPI        0000501256158315                  70                 NaN
115  12/01/25                                               UPI-SYED   SHABAZ-Q266485919@YBL-YESB0YBLUPI-501257232910-EGGS        0000501257232910                 175                 NaN
116  13/01/25                                            00752320002361-TPT-LAPTOP-EUROFINS IT SOLUTIONS INDIA PRIVATE LTD        0000000202788152                5000                 NaN
117  13/01/25           NEFT DR-ICIC0000401-MOHAMMED ASIF NADEEM SABER-NETBANK, MUM-HDFCN52025011303273480-ADD BENEFICIARY  HDFCN52025011303273480                 100                 NaN
118  15/01/25                            UPI-RELIANCE JIO INFOCOM-JIO@CITIBANK-CITI0RTGSMI-538192780652-JIO20BR000BNVGH2N1        0000538192780652                 579                 NaN
119  15/01/25                                                 UPI-KIRAN-PAYTMQR5WPYRY@PTYS-YESB0PTMUPI-501500334355-PETROL        0000501500334355                 355                 NaN
120  18/01/25                           UPI-SPAR HYPERMARKETS-LANDMARKSPAR@AXL-UTIB0AXLUPI-501813802511-PAYMENT FOR PINE26        0000501813802511                 280                 NaN
121  18/01/25                                             UPI-ZEPTONOW-ZEPTONOW.ESBZ@HDFCBANK-HDFC0001794-501813844169-UPI        0000501813844169              255.03                 NaN
122  19/01/25                                         UPI-SRI VIRINCHI VENTURE-Q302946503@YBL-YESB0YBLUPI-501947161750-UPI        0000501947161750                 310                 NaN
123  19/01/25                                         UPI-SRI VIRINCHI VENTURE-Q302946503@YBL-YESB0YBLUPI-501947448618-UPI        0000501947448618                  75                 NaN
124  19/01/25                                             UPI-SYED BASHEER-Q583728593@YBL-YESB0YBLUPI-501967324749-FLOWERS        0000501967324749                 350                 NaN
125  20/01/25                                       UPI-N  USHA-8073545525@IBL-SBIN0004926-604679485970-PAYMENT FROM PHONE        0000604679485970                 NaN                1000
126  22/01/25                                                UPI-PRAJWAL N-Q069144038@YBL-YESB0YBLUPI-502206952393-OUTSIDE        0000502206952393                 360                 NaN
127  24/01/25                              UPI-NYKAA ERETAIL PRIVAT-NYKAA.PAYU@HDFCBANK-HDFC0000499-502482525786-UPIINTENT        0000502482525786                1428                 NaN
128  25/01/25                                               UPI-SYEDA  FIRDOSE-Q922822033@YBL-YESB0YBLUPI-502546032089-UPI        0000502546032089                  60                 NaN
129  25/01/25                                         UPI-SURENDRA NATH-PAYTMQR64ZTAQ@PTYS-YESB0PTMUPI-502554103552-SNACKS        0000502554103552                 200                 NaN
130  26/01/25                                      UPI-SHANE ALAM-PAYTMQRCJY2037KMB@PAYTM-YESB0PTMUPI-502676664440-HAIRCUT        0000502676664440                 100                 NaN
131  26/01/25                                        UPI-SUKHADA KISHOR KUDAT-Q502884140@YBL-YESB0YBLUPI-502688402472-FOOD        0000502688402472                 129                 NaN
132  26/01/25                                                UPI-RATHNAKAR K M-Q443595896@YBL-YESB0YBLUPI-502601624365-UPI        0000502601624365                  10                 NaN
133  27/01/25                                                                            ME DC SI 416021XXXXXX3309 NETFLIX        0000502603060854                 649                 NaN
134  27/01/25                                    UPI-SHREE MARKETING ASSO-PAYTM-67412621@PTYS-YESB0PTMUPI-502746931624-UPI        0000502746931624                  65                 NaN
135  28/01/25                                            UPI-INDIAN RAILWAYS-RAILSBIUPI11@SBI-SBIN0006812-502888618955-UPI        0000502888618955                 190                 NaN
136  29/01/25                          UPI-BANGALORE METRO RAIL-ENGLISH.BMRC.PAYU@INDUS-INDB0MERCHA-502900130232-UPIINTENT        0000502900130232                72.2                 NaN
137  29/01/25               UPI-NN AND SONS FUEL STA-PAYTMQR281005050101MPBSV7QAX7TF@PAYTM-YESB0PTMUPI-502912667411-PETROL        0000502912667411                 300                 NaN
138  30/01/25                                          UPI-M K SUBAIR-PAYTMQR4Z7NLVF6PY@PAYTM-YESB0PTMUPI-503070103441-UPI        0000503070103441                  55                 NaN
139  01/02/25                                                                                          SALARY FOR JAN-2025        0000501308776814                 NaN              145633
140  01/02/25                                     UPI-A L M D VEGETABLES-Q297253553@YBL-YESB0YBLUPI-503264168538-GROCERIES        0000503264168538                 115                 NaN
141  01/02/25                         UPI-ALI ARBAAZ-BHARATPE.90069133307@FBPE-FDRL0001382-503264386203-PAY TO BHARATPE ME        0000503264386203                 280                 NaN
142  01/02/25                                                    UPI-AKBAR-PAYTMQR617UU1@PTYS-YESB0PTMUPI-503264721844-UPI        0000503264721844                  35                 NaN
143  01/02/25                                        UPI-ASHRAF NISHA-PAYTM.S17B6B1@PTY-YESB0MCHUPI-503276474895-GROCERIES        0000503276474895                 110                 NaN
144  01/02/25                                                UPI-SYED   SHABAZ-Q266485919@YBL-YESB0YBLUPI-503276711551-UPI        0000503276711551                 175                 NaN
145  01/02/25                                           UPI-A L M D VEGETABLES-Q248353038@YBL-YESB0YBLUPI-503289846386-UPI        0000503289846386                  20                 NaN
146  02/02/25                              UPI-SYED MAZHAR-BAJAJPAY.6879729.04196150@INDUS-INDB0MERCHA-503325324371-SNACKS        0000503325324371                 100                 NaN
147  02/02/25                                            UPI-STREET LOUNGE-PAYTMQR5CQRGW@PTYS-YESB0PTMUPI-503334861841-UPI        0000503334861841                 120                 NaN
148  03/02/25                                        UPI-HOWLERS-MAB.037347012850147@AXISBANK-UTIB0000100-503479044949-UPI        0000503479044949                 175                 NaN
149  04/02/25                                       UPI-COVAI KITCHEN-PAYTM.S170NM0@PTY-YESB0MCHUPI-503504730927-BREAKFAST        0000503504730927                  70                 NaN
150  04/02/25                                                 UPI-ADVAITA-PAYTM-79431653@PTYS-YESB0PTMUPI-503537157844-UPI        0000503537157844                 240                 NaN
151  05/02/25                                         UPI-B H ENTERPRISES-BHENTERPRISES@ICICI-ICIC0DC0099-503602110911-UPI        0000503602110911                 363                 NaN
152  09/02/25                                                       UPI-ZEPTO-ZEPTOONLINE@YBL-YESB0YBLUPI-504074116673-UPI        0000504074116673              368.16                 NaN
153  12/02/25                                                       UPI-EATCLUB-EATCLUB@PTYBL-YESB0PTMUPI-504333681765-UPI        0000504333681765                 104                 NaN
154  15/02/25                              UPI-SYED MAZHAR-BAJAJPAY.6879729.04196150@INDUS-INDB0MERCHA-100088238813-SNACKS        0000100088238813                 100                 NaN
155  15/02/25                                                     UPI-D B YOGA-Q670056786@YBL-YESB0YBLUPI-100088366426-UPI        0000100088366426                  45                 NaN
156  15/02/25                                        UPI-HOWLERS-MAB.037347012850174@AXISBANK-UTIB0000100-100100301517-UPI        0000100100301517                 355                 NaN
157  16/02/25                                    UPI-SMOKY DOCKY-VYAPAR.170724804929@HDFCBANK-HDFC0000001-100139232504-UPI        0000100139232504                 313                 NaN
158  16/02/25                                                UPI-SHAHEER T-PAYTMQR65SDM9@PTYS-YESB0PTMUPI-100142032362-UPI        0000100142032362                 180                 NaN
159  19/02/25                           UPI-MOHAMMAD SHARJIL MOH-MDSHARJIL99@OKHDFCBANK-HDFC0001785-100274741266-BADMINTON        0000100274741266                 150                 NaN
160  21/02/25                                                  UPI-KAREEM ULLA-9986380050@AXL-SBIN0004926-100358767864-UPI        0000100358767864                  20                 NaN
161  21/02/25                                                   UPI-NASRIN TAJ-Q880923565@YBL-YESB0YBLUPI-100360389594-UPI        0000100360389594                  30                 NaN
162  21/02/25                           UPI-SPAR HYPERMARKETS-LANDMARKSPAR@YBL-YESB0YBLUPI-100369551469-PAYMENT FOR PINE31        0000100369551469                 300                 NaN
163  21/02/25                                                                UPI-NA-NA-HDFC0003962-505200695475-REQPAYLITE        0000505200695475                 500                 NaN
164  22/02/25                                                                        POS 416021XXXXXX3309 AMAZON GIFT CARD        0000505205265257                1000                 NaN
165  23/02/25                                       UPI-SRI MAHADESHWARA FIL-Q70665541@YBL-YESB0YBLUPI-100480468797-PETROL        0000100480468797                 468                 NaN
166  23/02/25                                                                UPI-NA-NA-HDFC0003962-505400772625-REQPAYLITE        0000505400772625                1000                 NaN
167  24/02/25                                 UPI-MOHAMMED ASIF NADEEM-ASIFSABER3@OKICICI-ICIC0000245-100540165124-CHARITY        0000100540165124                1000                 NaN
168  25/02/25                                       UPI-N  USHA-8073545525@IBL-SBIN0004926-092227205393-PAYMENT FROM PHONE        0000092227205393                 NaN                 100
169  25/02/25                                        IMPS-505613380885-MOHAMMED ASIF NADEEM SABER-ICIC-XXXXXXXX8214-FATHER        0000505613380885              120000                 NaN
170  26/02/25                    NEFT DR-ICIC0000401-MOHAMMED ASIF NADEEM SABER-NETBANK, MUM-HDFCN52025022680185137-FATHER  HDFCN52025022680185137               30000                 NaN
171  26/02/25              UPI-MALABAR GOLD PVT LTD-MALABARGOLDPVTLTD.RZP@AXISBANK-UTIB0000100-100600444201-PAYVIARAZORPAY        0000100600444201               10000                 NaN
172  26/02/25                                        IMPS-505709349228-MOHAMMED ASIF NADEEM SABER-ICIC-XXXXXXXX8214-FATHER        0000505709349228               30000                 NaN
173  26/02/25                                                                            ME DC SI 416021XXXXXX3309 NETFLIX        0000505716167980                 649                 NaN
174  28/02/25                                       UPI-QURRATH UL AIN NUZHA-NUZZIE13@OKICICI-ICIC0001769-100703780064-UPI        0000100703780064                5000                 NaN
175  01/03/25                                                                                          SALARY FOR FEB-2025        0000502286984240                 NaN               75164
176  04/03/25                           UPI-HEED COMMUNICATIONS -PULSE2PIXEL@YESBANK-YESB0000016-506392312685-PAY WITH UPI        0000506392312685               25000                 NaN
177  05/03/25                                              IMPS-506422706908-MOHAMMED ASIF NADEEM-ICIC-XXXXXXXX8214-FAMILY        0000506422706908                 NaN               18705
178  05/03/25                        UPI-SIGARAMBOTLA  SURESH-SURESH619881@AXL-KKBK0007462-624307302465-PAYMENT FROM PHONE        0000624307302465               18705                 NaN
179  06/03/25                                               IMPS-506520886738-INSTANTPAY INDIA LTD-IDFB-XXXXXXX9701-PAYOUT        0000506520886738                 NaN                9081
180  08/03/25                                                                UPI-NA-NA-HDFC0003962-506700168369-REQPAYLITE        0000506700168369                1500                 NaN
181  09/03/25                                        UPI-FEMINA CUT PIECE-PAYTMQR13JWR9@PAYTM-YESB0PTMUPI-101203091982-UPI        0000101203091982                1650                 NaN
182  10/03/25                          UPI-GLOSSGLOW PRIVATE LI-URBANEAPPEAL@YESBANK-YESB0000016-506909703267-PAY WITH UPI        0000506909703267               10000                 NaN
183  12/03/25                            UPI-RELIANCE JIO INFOCOM-JIO@CITIBANK-CITI0RTGSMI-101357451868-JIO20BR000BULSI151        0000101357451868                 799                 NaN
184  13/03/25                         UPI-UNIKEEY TRADING PRIV-SNAPSHOPPEDIA@YESBANK-YESB0000016-507218487316-PAY WITH UPI        0000507218487316               10000                 NaN
185  13/03/25                                     UPI-MOHAMMED ASIF NADEEM-ASIFSABER3@OKICICI-ICIC0000245-507242318180-UPI        0000507242318180                 NaN               18500
186  13/03/25                            UPI-UNIVISTA TRADERS PRI-SPARKNCART@YESBANK-YESB0000016-507218614113-PAY WITH UPI        0000507218614113               18500                 NaN
187  13/03/25           UPI-UPAHARA DARSHINI-UPAHARADARSHINI.41924623@HDFCBANK-HDFC0MERUPI-101444200284-GENERATING DYNAMIC        0000101444200284                 981                 NaN
188  14/03/25                                  UPI-M D ZAINULLA-9448137996@YBL-HDFC0004210-893269830379-PAYMENT FROM PHONE        0000893269830379                 170                 NaN
189  15/03/25                                                                               POS 416021XXXXXX3309 RETAILCCA        0000507415157060                  36                 NaN
190  15/03/25                                   UPI-IRSHAD KHAN-8050699386@IBL-INDB0000229-774824526355-PAYMENT FROM PHONE        0000774824526355                 150                 NaN
191  15/03/25                                           UPI-MOHAMMED HASSAN-PAYTM.S1341E5@PTY-YESB0MCHUPI-101528961140-UPI        0000101528961140                 300                 NaN
192  15/03/25                                                UPI-MUNAWAR PASHA-Q179702206@YBL-YESB0YBLUPI-101529119073-UPI        0000101529119073                 150                 NaN
193  15/03/25                 UPI-NKP EMPIRE VENTURES -NKPEMPIREVENTURESPVT.63223033@HDFCBANK-HDFC0MERUPI-101530689427-UPI        0000101530689427                 200                 NaN
194  15/03/25                                      UPI-GFB  NEXUS MALL-PAYTM.D14285162646@PTY-YESB0MCHUPI-101533648796-UPI        0000101533648796                 205                 NaN
195  15/03/25                                      UPI-GFB  NEXUS MALL-PAYTM.D14285162646@PTY-YESB0MCHUPI-101534086205-UPI        0000101534086205                 205                 NaN
196  16/03/25                           UPI-WWW EXCITEL COM-EXCITEL.PAYU@HDFCBANK-HDFC0MERUPI-100176156139-UPI TRANSACTION        0000100176156139             2889.82                 NaN
197  16/03/25                                           UPI-A L M D VEGETABLES-Q297253553@YBL-YESB0YBLUPI-101576200520-UPI        0000101576200520                 230                 NaN
198  16/03/25                                           UPI-FAYAQ ULLA SHARIFF-Q543368046@YBL-YESB0YBLUPI-101576507556-UPI        0000101576507556                 230                 NaN
199  16/03/25                                              UPI-ASHRAF NISHA-PAYTM.S17B6B1@PTY-YESB0MCHUPI-101579724673-UPI        0000101579724673                  68                 NaN
200  16/03/25                                   UPI-UIDAI-UIDAI726685.RZP@RXAIRTEL-AIRP0000011-101596642400-PAYMENTTOUIDAI        0000101596642400                  50                 NaN
201  17/03/25                        UPI-RAKSHIT SHIRISH RUDR-8904637770-2@AXL-UTIB0004071-706800633059-PAYMENT FROM PHONE        0000706800633059                 NaN                 600
202  18/03/25                                    UPI-MOHAMMED ASIF NADEEM-ASIFSABER3-1@OKAXIS-UTIB0001513-507773354046-UPI        0000507773354046                 NaN               45000
203  18/03/25                 UPI-VANDELAY EXPORTS PRI-VANDELAYEXPORTS.PAY10@SBI-SBIN0006209-100121592040-PAY WITH SBI UPI        0000100121592040               45000                 NaN
204  18/03/25                                 UPI-NYKAA ERETAIL PRIVAT-NYKAA.PAYU@ICICI-ICIC0DC0099-101668951529-UPIINTENT        0000101668951529                2189                 NaN
205  18/03/25                           UPI-NYRAA ECOMMERCE INDI-URBANDRAPES@YESBANK-YESB0000016-507732121288-PAY WITH UPI        0000507732121288               45000                 NaN
206  18/03/25                                           UPI-ABDUL  KHADEER-AMZN0010237509@APL-SBIN0005407-101683728233-UPI        0000101683728233                 200                 NaN
207  18/03/25                                                      UPI-RMA-Q451926543@YBL-YESB0YBLUPI-101695517778-OUTSIDE        0000101695517778                 100                 NaN
208  18/03/25                                     UPI-AMAZON PAY-AMAZONUPI@APL-UTIB0000100-101697900537-YOU ARE PAYING FOR        0000101697900537                1293                 NaN
209  19/03/25                          UPI-AYESHA THAHNIYATH SA-9945178600@YBL-HDFC0000365-761836325177-PAYMENT FROM PHONE        0000761836325177                 NaN                2200
210  19/03/25                                     UPI-MOHAMMED ASIF NADEEM-ASIFSABER3@OKICICI-ICIC0000245-544451326691-UPI        0000544451326691                 NaN               45000
211  19/03/25                          UPI-AAFIFA ENTERPRISES-DAPPERPROPLACE@YESBANK-YESB0000016-507833866372-PAY WITH UPI        0000507833866372               45000                 NaN
212  19/03/25                                        UPI-HOWLERS-MAB.037347012850174@AXISBANK-UTIB0000100-101732887848-UPI        0000101732887848                  85                 NaN
213  19/03/25                                                 UPI-SURAKSHA D S-Q539038428@YBL-YESB0YBLUPI-101734014178-UPI        0000101734014178                  89                 NaN
214  19/03/25                                                                               POS 416021XXXXXX3309 RETAILCCA        0000507821021371                 915                 NaN
215  20/03/25                                        UPI-BINU  MATHEW-BINMATS@OKSBI-SBIN0008652-101784759779-GRILL CHICKEN        0000101784759779                 200                 NaN
216  20/03/25                                                                               POS 416021XXXXXX3309 RETAILCCA        0000507921110903                 259                 NaN
217  21/03/25                                   UPI-AMAZON INDIA-AMAZONUPI@APL-UTIB0000100-508069034783-YOU ARE PAYING FOR        0000508069034783                 119                 NaN
218  21/03/25                          UPI-MOHAMMED ASIF NADEEM-7799578680@AXL-ICIC0000245-321047983256-PAYMENT FROM PHONE        0000321047983256                 399                 NaN
219  21/03/25                                       UPI-MOHAMMED ASIF NADEEM-7799578680@AXL-ICIC0000245-049769754549-FITRA        0000049769754549                 300                 NaN
220  21/03/25                                              IMPS-508019521997-PAY10 SERVICES PRIVA-IDFB-XXXXXXX0150-IMPSTXN        0000508019521997                 NaN               91247
221  21/03/25                                               UPI-SAMAD  HUSSAIN-Q806478421@YBL-YESB0YBLUPI-101841979414-UPI        0000101841979414                  80                 NaN
222  21/03/25                                         UPI-BP PETROL PUMP  BP B-Q561098376@YBL-YESB0YBLUPI-101846908325-UPI        0000101846908325                 475                 NaN
223  22/03/25                                              IMPS-508105923005-PAY10 SERVICES PRIVA-IDFB-XXXXXXX0150-IMPSTXN        0000508105923005                 NaN               13703
224  23/03/25                                               IMPS-508219362693-INSTANTPAY INDIA LTD-IDFB-XXXXXXX9701-PAYOUT        0000508219362693                 NaN                9135
225  23/03/25                  UPI-NATURALS STMARKS ROA-PAYTMQR28100505010110UKQRV99E88@PAYTM-YESB0PTMUPI-101955149316-UPI        0000101955149316                 425                 NaN
226  24/03/25                                                 UPI-KRISHNA  M-KRISHNAM4968@SBI-SBIN0040871-101980489660-UPI        0000101980489660                 103                 NaN
227  26/03/25                          UPI-BANGALORE METRO RAIL-ENGLISH.BMRC.PAYU@INDUS-INDB0MERCHA-102102002116-UPIINTENT        0000102102002116                  70                 NaN
228  26/03/25                                              IMPS-508522419888-PAY10 SERVICES PRIVA-IDFB-XXXXXXX0150-IMPSTXN        0000508522419888                 NaN               10135
229  26/03/25                                              IMPS-508523509078-PAY10 SERVICES PRIVA-IDFB-XXXXXXX0150-IMPSTXN        0000508523509078                 NaN               10134
230  27/03/25                                              IMPS-508605654170-PAY10 SERVICES PRIVA-IDFB-XXXXXXX0150-IMPSTXN        0000508605654170                 NaN               10134
231  27/03/25                                                                            ME DC SI 416021XXXXXX3309 NETFLIX        0000508502504212                 649                 NaN
232  27/03/25                          UPI-AAMIRA ENTERPRISES-TRENDZELEGANCE@YESBANK-YESB0000016-508658827093-PAY WITH UPI        0000508658827093               48760                 NaN
233  27/03/25                          UPI-AAFIFA ENTERPRISES-DAPPERPROPLACE@YESBANK-YESB0000016-508658830753-PAY WITH UPI        0000508658830753               45000                 NaN
234  27/03/25                                     UPI-TACO BELL ROYAL MEEN-PAYTM-7977105@PTYS-YESB0PTMUPI-102148882837-UPI        0000102148882837                 261                 NaN
235  27/03/25                                              UPI-AKBAR-PAYTMQR617UU1@PTYS-YESB0PTMUPI-102160424598-GROCERIES        0000102160424598                 105                 NaN
236  28/03/25                                           UPI-KAREEM ULLA-9986380050@AXL-SBIN0004926-102177256959-CELLO TQPE        0000102177256959                  50                 NaN
237  28/03/25                                                UPI-MD  SHAHID-8639823480@IBL-SBIN0009345-102186228630-MASJID        0000102186228630                 100                 NaN
238  28/03/25                                      UPI-SHABEENA-Q272596735@YBL-YESB0YBLUPI-539095659387-PAYMENT FROM PHONE        0000539095659387                  60                 NaN
239  29/03/25                                 UPI-MOHAMMED ASIF NADEEM-ASIFSABER3@OKICICI-ICIC0000245-102240627750-CHARITY        0000102240627750                8400                 NaN
240  30/03/25                                         UPI-LIFE CARE MEDICALS 2-Q614467359@YBL-YESB0YBLUPI-102278263279-UPI        0000102278263279                  75                 NaN
241  30/03/25                         UPI-ALI ARBAAZ-BHARATPE.90069133307@FBPE-FDRL0001382-102309088643-PAY TO BHARATPE ME        0000102309088643                 250                 NaN
242  30/03/25                           UPI-SPAR HYPERMARKETS-LANDMARKSPAR@YBL-YESB0YBLUPI-102310080193-PAYMENT FOR PINE37        0000102310080193               439.1                 NaN
243  30/03/25                                          UPI-M K SUBAIR-PAYTMQR4Z7NLVF6PY@PAYTM-YESB0PTMUPI-102310798754-UPI        0000102310798754                 272                 NaN
244  30/03/25                                             UPI-ZEPTONOW-ZEPTONOW.ESBZ@HDFCBANK-HDFC0MERUPI-102314436624-UPI        0000102314436624                 315                 NaN
245  31/03/25                                        UPI-BUNNY BAKERS-PAYTMQR125C4DUWWS@PAYTM-YESB0PTMUPI-102382920707-UPI        0000102382920707                 125                 NaN
246  31/03/25                                      UPI-BUNNY BAKERS-PAYTMQR125C4DUWWS@PAYTM-YESB0PTMUPI-102382939913-EXTRA        0000102382939913                  10                 NaN
247  31/03/25                             UPI-VILLAGE HYPER BAZAAR-Q885757033@YBL-YESB0YBLUPI-102383297866-RUQAIYA PARATHA        0000102383297866                 220                 NaN
248  31/03/25                                            UPI-RASHID AHMED-RASHID.ME19@OKICICI-BARB0VJVIJB-545692705071-UPI        0000545692705071                 NaN              336.51
249  31/03/25                                             UPI-RUQAIYA AHMED-RUQAIYA95@OKAXIS-BKID0008423-509020334750-EIDI        0000509020334750                 NaN                 499
250  31/03/25                                              UPI-RUQAIYA AHMED-RUQAIYA95@OKAXIS-BKID0008423-509043333094-UPI        0000509043333094                 NaN                   1
251  01/04/25                                                                               INTEREST PAID TILL 31-MAR-2025         000000000000000                 NaN                1074
252  01/04/25                                                                                          SALARY FOR MAR-2025        0000503319279961                 NaN               73821
253  02/04/25                                UPI-SHAISTHA FATHIMA-SHAISTHA.SHAKEER@OKHDFCBANK-CNRB0000033-102457489094-UPI        0000102457489094                 NaN                 200
254  03/04/25                           UPI-CORNER HOUSE ICE CRE-VYAPAR.172400988805@HDFCBANK-HDFC0MERUPI-102543185368-UPI        0000102543185368                 519                 NaN
255  03/04/25                                      UPI-PRABHANTH ENTERPRISE-88094444@IDFCBANK-IDFB0080185-102544358120-UPI        0000102544358120                 180                 NaN
256  03/04/25                                    UPI-MOHAMMAD MANSOOR-PAYTMQRD2HB61H0G9@PAYTM-YESB0PTMUPI-102555265850-UPI        0000102555265850                  20                 NaN
257  04/04/25              UPI-MALABAR GOLD PVT LTD-MALABARGOLDPVTLTD.RZP@AXISBANK-UTIB0000100-102569934525-PAYVIARAZORPAY        0000102569934525               10000                 NaN
258  07/04/25                                              UPI-SHIVA KUMAR M R-CKCINFO232@AXL-FDRL0007777-102741768824-UPI        0000102741768824                  95                 NaN
259  07/04/25                          UPI-BANGALORE METRO RAIL-ENGLISH.BMRC.PAYU@INDUS-INDB0MERCHA-102741835214-UPIINTENT        0000102741835214                  40                 NaN
260  07/04/25                                            UPI-SHANTHAMMA B G-9901864677@AXL-PKGB0012133-381232782599-PARCEL        0000381232782599                 100                 NaN
261  09/04/25                                    UPI-SOWBHAGYA AND CO-PAYTM-46071647VDQM@PTYS-YESB0PTMUPI-102903326713-UPI        0000102903326713              486.81                 NaN
262  09/04/25                                      UPI-DOMINOS PIZZA-DOMINOSPIZZAONLINE@PTYBL-YESB0PTMUPI-102903492513-UPI        0000102903492513               51.45                 NaN
263  10/04/25                                                     UPI-RAGHU  M-Q492421884@YBL-YESB0YBLUPI-102916206877-UPI        0000102916206877                  48                 NaN
264  10/04/25                                UPI-DOMINOS PIZZA-DOMINOSPIZZA.41650421@HDFCBANK-HDFC0MERUPI-102957129883-UPI        0000102957129883               102.9                 NaN
265  11/04/25                                           UPI-BLOSSOM BOOK HOUSE-Q639989935@YBL-YESB0YBLUPI-102973776961-UPI        0000102973776961                 730                 NaN
266  11/04/25                                     UPI-EMPIRE GIFTS CHURCH -PAYTMQR60V49C@PTYS-YESB0PTMUPI-102974125849-UPI        0000102974125849                   5                 NaN
267  11/04/25                                              UPI-K MUBARAK-7411596801@NAVIAXIS-AIRP0000001-103013029726-AUTO        0000103013029726                 439                 NaN
268  13/04/25                                           UPI-ASNA ZAINAB-ASNAZAINAB101@OKAXIS-BARB0VJVIJB-103105299348-EIDI        0000103105299348                 300                 NaN
269  13/04/25                                     UPI-ARIBA  TABASSUM-ARIBA.TABASSUM17@OKSBI-BARB0VJVIJB-103105316898-EIDI        0000103105316898                 300                 NaN
270  13/04/25                                   UPI-SHEETHAL  R-Q104166749@YBL-YESB0YBLUPI-103109837962-HALLI MANE GROUNDN        0000103109837962                 760                 NaN
271  14/04/25                                         UPI-SRI VIRINCHI VENTURE-Q302946503@YBL-YESB0YBLUPI-103140466335-UPI        0000103140466335                 100                 NaN
272  16/04/25                          UPI-BANGALORE METRO RAIL-ENGLISH.BMRC.PAYU@INDUS-INDB0MERCHA-103294693197-UPIINTENT        0000103294693197                  50                 NaN
273  17/04/25                                     UPI-TACO BELL GOPALAN IN-PAYTM-3606629@PTYS-YESB0PTMUPI-103343210636-UPI        0000103343210636                 205                 NaN
274  17/04/25                                                                          IB BILLPAY DR-HDFC97-361010XXXX8278        NB17223140019010                9748                 NaN
275  18/04/25                          UPI-AYESHA THAHNIYATH SA-9945178600@YBL-HDFC0000365-672885762989-PAYMENT FROM PHONE        0000672885762989                 NaN                3000
276  18/04/25                                UPI-TASMIYA KOUSER-Q942933398@YBL-YESB0YBLUPI-268207414476-PAYMENT FROM PHONE        0000268207414476                 150                 NaN
277  18/04/25                                UPI-JUNYS-JUNYS.42794234@HDFCBANK-HDFC0MERUPI-575772688946-PAYMENT FROM PHONE        0000575772688946                 231                 NaN
278  18/04/25                                   UPI-NEMAN  LAMA-Q173673632@YBL-YESB0YBLUPI-407630059175-PAYMENT FROM PHONE        0000407630059175                 130                 NaN
279  18/04/25  UPI-BINNY MILL ROAD GANG-BINNYMILLROADGANGANA.63471968@HDFCBANK-HDFC0MERUPI-357137799602-PAYMENT FROM PHONE        0000357137799602                 291                 NaN
280  18/04/25                                   UPI-VIJAY KUMAR-Q339381323@YBL-YESB0YBLUPI-536955977806-PAYMENT FROM PHONE        0000536955977806                 150                 NaN
281  18/04/25                                    UPI-DEEPAK J V-PAYTMQR1BSDW98PHY@PAYTM-YESB0PTMUPI-520386022560-MILK DIDI        0000520386022560                  54                 NaN
282  18/04/25         UPI-N RAVI PRATHAP-PAYTMQR281005050101TJ504JQV3TYA@PAYTM-YESB0PTMUPI-470507638366-PAYMENT FROM PHONE        0000470507638366                  42                 NaN
283  20/04/25                                             UPI-SYED SHABAZ-PAYTMQR6A9667@PTYS-YESB0PTMUPI-486485152081-EGGS        0000486485152081                 155                 NaN
284  21/04/25                        UPI-RAKSHIT SHIRISH RUDR-8904637770-2@AXL-UTIB0004071-904596640071-PAYMENT FROM PHONE        0000904596640071                 NaN                3915
285  21/04/25                        UPI-RAKSHIT SHIRISH RUDR-8904637770-2@AXL-UTIB0004071-764194542506-PAYMENT FROM PHONE        0000764194542506                 NaN                 250
286  21/04/25                            UPI-JOGARAM M PUROHIT-PAYTMQR10VBBBZ4WE@PAYTM-YESB0PTMUPI-499190366757-STATIONERY        0000499190366757                  16                 NaN
287  22/04/25                                                UPI-TAE-9986944228@OKBIZAXIS-UTIB0000553-595628697586-OUTSIDE        0000595628697586                 144                 NaN
288  23/04/25                             UPI-SRINIDHI VAIBHAVA-Q813728743@YBL-YESB0YBLUPI-559022597047-PAYMENT FROM PHONE        0000559022597047                 435                 NaN
289  23/04/25                                                                              POS 416021XXXXXX3309 RETAIL  CC        0000511310012657                  33                 NaN
290  25/04/25                          UPI-SRI NEW A B R XEROX -Q356440634@YBL-YESB0YBLUPI-157036564894-PAYMENT FROM PHONE        0000157036564894                  20                 NaN
291  26/04/25                                UPI-VYKUNTAM GROUP-Q888935573@YBL-YESB0YBLUPI-890830820158-PAYMENT FROM PHONE        0000890830820158                 130                 NaN
292  26/04/25               UPI-MR  VENKATESWARA RAO-BHARATPE.90072193806@FBPE-FDRL0001382-103805946530-PAY TO BHARATPE ME        0000103805946530                1104                 NaN
293  27/04/25                                                                            ME DC SI 416021XXXXXX3309 NETFLIX        0000511603748251                 649                 NaN
294  29/04/25                      UPI-WELCOME PROVISION ST-PAYTMQR62M0QI@PTYS-YESB0PTMUPI-192677158640-PAYMENT FROM PHONE        0000192677158640                  95                 NaN
295  29/04/25   UPI-JUICE JUNCTION ST MA-PAYTMQR28100505010193VN0ZYXLQYY@PAYTM-YESB0PTMUPI-528737144265-PAYMENT FROM PHONE        0000528737144265                  90                 NaN
296  29/04/25                            UPI-RELIANCE JIO INFOCOM-JIO@CITIBANK-CITI0RTGSMI-563794934858-JIO20BR000C590UCG2        0000563794934858                  19                 NaN
297  30/04/25                                                       UPI-N  USHA-8073545525@YBL-SBIN0004926-830200519463-HL        0000830200519463                 500                 NaN
298  30/04/25                                  UPI-RAGHUVEER FUEL SERVI-PAYTMQR60GM54@PTYS-YESB0PTMUPI-104048192410-PETROL        0000104048192410                 516                 NaN
299  01/05/25                                                                                          SALARY FOR APR-2025        0000504305404133                 NaN               86931
300  02/05/25                           UPI-SPAR HYPERMARKETS-LANDMARKSPAR@YBL-YESB0YBLUPI-104120205765-PAYMENT FOR PINE43        0000104120205765                1023                 NaN
301  02/05/25                                       UPI-N  USHA-8073545525@YBL-SBIN0004926-572206300306-PAYMENT FROM PHONE        0000572206300306                 NaN                 500
302  03/05/25                                    UPI-M K SUBAIR-PAYTMQR4Z7NLVF6PY@PAYTM-YESB0PTMUPI-104177019915-GROCERIES        0000104177019915                  60                 NaN
303  03/05/25                                              UPI-IMRANA BANU-9845864530ARIF@YBL-KARB0000061-104183950626-UPI        0000104183950626                  85                 NaN
304  03/05/25                                              REV-UPI-50100738711936-ARBAAZFB26-1@OKHDFCBANK-104183950626-UPI        0000104183950626                 NaN                  85
305  03/05/25                         UPI-ARIF  BASHA-ARIFBASHA4530@OKHDFCBANK-SBIN0004926-111122596611-PAYMENT FROM PHONE        0000111122596611                  85                 NaN
306  03/05/25                                                 UPI-RITA  CHETRY-Q917685957@YBL-YESB0YBLUPI-104211514068-UPI        0000104211514068                  70                 NaN
307  03/05/25                UPI-MALABAR GOLD PVT LTD-MALABARGOLDPVTL776.RZP@ICICI-ICIC0DC0099-104221084193-PAYVIARAZORPAY        0000104221084193               10000                 NaN
308  05/05/25                                           UPI-MS ROSHAN  TAILORI-Q188567536@YBL-YESB0YBLUPI-104322705123-ZIP        0000104322705123                  27                 NaN
309  05/05/25                          UPI-V K MOHAMMED RAFEEQ-PAYTMQRFV3K87RM0G@PAYTM-YESB0PTMUPI-104323235153-STATIONERY        0000104323235153                  40                 NaN
310  05/05/25                                     UPI-GOOGLE INDIA DIGITAL-PLAYSTORE@AXISBANK-UTIB0000553-104337904219-UPI        0000104337904219                  29                 NaN
311  06/05/25                                        UPI-ANIL KUMAR N-PAYTMQROAVGVBBM6Z@PAYTM-YESB0PTMUPI-104369316364-UPI        0000104369316364                  20                 NaN
312  06/05/25                                UPI-ANIL KUMAR N-PAYTMQROAVGVBBM6Z@PAYTM-YESB0PTMUPI-104378629051-OFFICE FOOD        0000104378629051                 155                 NaN
313  06/05/25                                   UPI-MANGLORE STORE-GPAY-11251984158@OKBIZAXIS-UTIB0000553-104391893052-UPI        0000104391893052                 135                 NaN
314  08/05/25                       NEFT CR-ICIC0000103-MOHAMMED ARBAAZ SABER-MOHAMMED ARBAAZ SABER-ICICN52025050800805358  ICICN52025050800805358                 NaN            36185.78
315  10/05/25                       UPI-SMOKY DOCKY KORMANGA-PAYTM.S1GIB7F@PTY-YESB0MCHUPI-379944355540-PAYMENT FROM PHONE        0000379944355540                 230                 NaN
316  11/05/25                      UPI-STRA AMBUR BIRYANI A-PAYTMQR61DPV3@PTYS-YESB0PTMUPI-184840568519-PAYMENT FROM PHONE        0000184840568519                 190                 NaN
317  12/05/25           NEFT CR-CITI0100000-PAYPAL PAYMENTS PL INR FBO CUR AC-MOHAMMED ARBAAZ SABER-CITIN52025051262524906  CITIN52025051262524906                 NaN                1.12
318  12/05/25           NEFT CR-CITI0100000-PAYPAL PAYMENTS PL INR FBO CUR AC-MOHAMMED ARBAAZ SABER-CITIN52025051262525140  CITIN52025051262525140                 NaN                1.13
319  12/05/25                                            IMPS-513213385732-MOHAMMED ASIF NADEEM SABER-ICIC-XXXXXXXX8214-HL        0000513213385732               50000                 NaN
320  12/05/25                                           UPI-VODAFONE IDEA LIMITE-VIPREVF@HSBC-HSBC0400002-104694758520-UPI        0000104694758520                  99                 NaN
321  13/05/25                              UPI-MOHD ASIF NADEEM  SA-ASIFSABER3-2@OKAXIS-SBIN0004926-549951980768-HL RETURN        0000549951980768                 NaN               50000
322  13/05/25                                         UPI-SUNITASAINIWOMUKESHS-Q215326451@YBL-YESB0YBLUPI-104756688936-UPI        0000104756688936                  35                 NaN
323  13/05/25                                          UPI-MR MUSTHAFA V K-PAYTMQR61EFPZ@PTYS-YESB0PTMUPI-104757509180-UPI        0000104757509180                  60                 NaN
324  13/05/25                                          UPI-MR MUSTHAFA V K-PAYTMQR61EFPZ@PTYS-YESB0PTMUPI-104757892290-UPI        0000104757892290                  30                 NaN
325  14/05/25                                 UPI-DHRUV RATHI-RATHIDHRUV9286-1@OKHDFCBANK-HDFC0001226-104812061047-CRICKET        0000104812061047                 400                 NaN
326  14/05/25                          UPI-RAKSHIT SHIRISH RUDR-8904637770@IBL-KARB0000095-225855962397-PAYMENT FROM PHONE        0000225855962397                 NaN                 300
327  14/05/25                                                                          IB BILLPAY DR-HDFC97-361010XXXX8278        NB14234808024005               98501                 NaN
328  16/05/25                              UPI-KHALEEL AKBAR PASHA-9849892471@YBL-KVBL0004845-104894891640-QURBANI ADVANCE        0000104894891640               60000                 NaN
329  17/05/25                           UPI-SPAR HYPERMARKETS-LANDMARKSPAR@YBL-YESB0YBLUPI-104957086163-PAYMENT FOR PINE45        0000104957086163                 806                 NaN
330  17/05/25                                 UPI-MUHAFIZ KHAN M-PAYTMQR5838D9@PAYTM-YESB0PTMUPI-104957407428-AMMI TABLETS        0000104957407428                1496                 NaN
331  17/05/25                                                                 CASH DEPOSIT BY - ARBAAZ - BANNERGHATTA ROAD         000000000000000                 NaN               60000
332  18/05/25                                      UPI-SANTOSH CHATS-SANTO91108159@BARODAMPAY-BARB0VJINFA-105021738586-UPI        0000105021738586                  90                 NaN
333  18/05/25                                      UPI-BOMBAY VADA PAV CENT-PAYTM.S1BKHL4@PTY-YESB0MCHUPI-105026047550-UPI        0000105026047550                  50                 NaN
334  18/05/25     UPI-PRASHANTKUMAR RAJEND-BHARATPE9Z0X7B2I8R887958@YESBANKLTD-YESB0YESUPI-105026564123-PAY TO BHARATPE ME        0000105026564123                  60                 NaN
335  18/05/25                                        UPI-CAFE ARENA-0798156A0218058.BQR@KOTAK-KKBK0008156-105038239635-UPI        0000105038239635                 415                 NaN
336  19/05/25                                                 UPI-JOHN BHASKAR-9448514183@YBL-BARB0JAYANA-105075183113-GAS        0000105075183113                 900                 NaN
337  20/05/25                                     UPI-FAMOUS 99 VARIETY DO-PAYTMQR6CS45M@PTYS-YESB0PTMUPI-105142384082-UPI        0000105142384082                  80                 NaN
338  20/05/25                                     UPI-TACO BELL GOPALAN IN-PAYTM-3606629@PTYS-YESB0PTMUPI-105142611742-UPI        0000105142611742                 189                 NaN
339  21/05/25                                             UPI-SANDWICH GURU-PAYTM.S1AO8MN@PTY-YESB0MCHUPI-105182834279-UPI        0000105182834279                 160                 NaN
340  21/05/25                                             UPI-SANDWICH GURU-PAYTM.S1AO8MN@PTY-YESB0MCHUPI-105184147255-UPI        0000105184147255                  65                 NaN
341  23/05/25                                          UPI-M K SUBAIR-PAYTMQR4Z7NLVF6PY@PAYTM-YESB0PTMUPI-105257951159-UPI        0000105257951159                 120                 NaN
342  23/05/25                                          UPI-JSD TECHNO DENTAL-Q087826627@YBL-YESB0YBLUPI-105292231638-X RAY        0000105292231638                 400                 NaN
343  24/05/25                                          UPI-UDUPISAGAR-PAYTMQR1W5S4CMLPJ@PAYTM-YESB0PTMUPI-105311632393-UPI        0000105311632393                 130                 NaN
344  24/05/25                         UPI-SUSHMITHA B R-PAYTMQR281005050101VK8GOC02JT4N@PAYTM-YESB0PTMUPI-105326486115-UPI        0000105326486115                 120                 NaN
345  24/05/25      UPI-AIRTEL DIRECT UPI FI-AIRTELDIRECTUPI836382.RZP@RXAIRTEL-AIRP0000011-105329538596-AIRTELDIRECTUPIFIX        0000105329538596                2500                 NaN
346  24/05/25                                          UPI-MURUGESAN S-PAYTMQR6CSDVE@PTYS-YESB0PTMUPI-105330094698-COCONUT        0000105330094698                 100                 NaN
347  25/05/25                                      UPI-SHANE ALAM-PAYTMQRCJY2037KMB@PAYTM-YESB0PTMUPI-105367733093-HAIRCUT        0000105367733093                 250                 NaN
348  25/05/25                          UPI-BANGALORE METRO RAIL-ENGLISH.BMRC.PAYU@INDUS-INDB0MERCHA-105370675875-UPIINTENT        0000105370675875                  50                 NaN
349  25/05/25                                                            UPI-ANSHU-ANSUAT@IBL-KKBK0008072-105381912632-UPI        0000105381912632                  40                 NaN
350  25/05/25                                              REV-UPI-50100738711936-ARBAAZFB26-1@OKHDFCBANK-105381912632-UPI        0000105381912632                 NaN                  40
351  25/05/25                                               UPI-KK ADARSH OPUS-Q930535797@YBL-YESB0YBLUPI-105382546976-UPI        0000105382546976                1476                 NaN
352  25/05/25                              UPI-MOHAMMED SAFIULLAH-MOHAMMEDSAFIULLAH1997@OKSBI-KKBK0008065-514588440045-UPI        0000514588440045                 NaN                 700
353  27/05/25                                                                            ME DC SI 416021XXXXXX3309 NETFLIX        0000514603272891                 649                 NaN
354  27/05/25                                               UPI-M  T FOODS-Q886032090@YBL-YESB0YBLUPI-105487214015-OUTSIDE        0000105487214015                 168                 NaN
355  27/05/25                                                   UPI-SOFIA S-SOFIAS660@OKICICI-KKBK0000432-551373047738-UPI        0000551373047738                 NaN                 200
356  27/05/25                                  UPI-FUSION FOODWORKS PRI-PAYTM.S16OUFO@PTY-YESB0MCHUPI-105489594438-OUTSIDE        0000105489594438                 104                 NaN
357  28/05/25                                          UPI-KHALEEL AKBAR PASHA-9849892471@YBL-KVBL0004845-105513421944-UPI        0000105513421944                1000                 NaN
358  28/05/25                                       UPI-QURRATH UL AIN NUZHA-NUZZIE13@OKICICI-ICIC0001769-551465365215-UPI        0000551465365215                 NaN                3000
359  28/05/25                                     UPI-PAVANA KUMARA C-PAYTMQRSGHU5SQY7H@PAYTM-YESB0PTMUPI-105519573362-UPI        0000105519573362              565.03                 NaN
360  31/05/25                                UPI-ATTIBELE ELECTRONIC -EC1-EC-L05@ICICI-ICIC0DC0099-515165397820-ECITY TOLL        0000515165397820                  35                 NaN
361  01/06/25                                                                                          SALARY FOR MAY-2025        0000505306196128                 NaN               86231
362  02/06/25                                     UPI-MOHAMMED KAMAL  SHAR-7207657233-4@YBL-SBIN0003605-105787592034-BAKRA        0000105787592034               16000                 NaN
363  02/06/25                                       UPI-QURRATH UL AIN NUZHA-NUZZIE13@OKICICI-ICIC0001769-551919423168-UPI        0000551919423168                 NaN                5000
364  02/06/25                                        UPI-SURENDRA JENA-PAYTM.S1BCJVO@PTY-YESB0MCHUPI-105814848982-VADA PAV        0000105814848982                  20                 NaN
365  03/06/25                       UPI-RAKSHIT SHIRISH RUDR-BLUEHEART1309@AXL-UTIB0004071-489077318684-PAYMENT FROM PHONE        0000489077318684                 NaN               20000
366  03/06/25            UPI-MAHENDRA PRASAD SHAW-PAYTMQR281005050101EVID2IMA4SJZ@PAYTM-YESB0PTMUPI-105869061339-PANI PURI        0000105869061339                  25                 NaN
367  03/06/25                                   UPI-TRUE CAKES  AREKERE-PAYTM.S14TFR2@PTY-YESB0MCHUPI-105869760302-BROWNIE        0000105869760302                 103                 NaN
368  04/06/25                                            UPI-YASEEN BAIG-9845198025@KOTAK811-KKBK0000958-105900392851-AUTO        0000105900392851                 270                 NaN
369  04/06/25                          UPI-R CHENNA KESAVA REDD-9113501627@YBL-KARB0000964-830182675172-PAYMENT FROM PHONE        0000830182675172                 NaN                 270
370  04/06/25                                                                      ATW-416021XXXXXX3309-S1AWBL29-BANGALORE        0000000000008871                5000                 NaN
371  04/06/25                                       UPI-GANGALAPUDI HAREESH-PAYTM.S1B0K6A@PTY-YESB0MCHUPI-105927611517-UPI        0000105927611517                  20                 NaN
372  04/06/25                                     UPI-CHAND PRAKASH SINGH-Q789310331@YBL-YESB0YBLUPI-105928281429-VADA PAV        0000105928281429                  20                 NaN
373  05/06/25                            UPI-RELIANCE JIO INFOCOM-JIO@CITIBANK-CITI0RTGSMI-105943149141-JIO20BR000CB57BJY0        0000105943149141                 199                 NaN
374  05/06/25                                         UPI-THAVISHALA VIKRAMA S-Q348564355@YBL-YESB0YBLUPI-105944542257-UPI        0000105944542257                  40                 NaN
375  05/06/25                       UPI-M S SRI RAJESHWARI E-EAZYPAY.0NQM6RQG8BJ0UCW@ICICI-ICIC0DC0099-515672266050-COFFEE        0000515672266050                  60                 NaN
376  05/06/25                                   UPI-RABINDRA BARDHAN-PAYTMQR6C2Z7T@PTYS-YESB0PTMUPI-105968765416-GROCERIES        0000105968765416                  20                 NaN
377  05/06/25                           UPI-NAGANATH-BHARATPE.90066763079@FBPE-FDRL0001382-105972959363-PAY TO BHARATPE ME        0000105972959363                1000                 NaN
378  05/06/25                                   UPI-MEHFIL RESTAURANT4-PAYTM.D14184553183@PTY-YESB0MCHUPI-105973286831-UPI        0000105973286831                 440                 NaN
379  05/06/25                                   UPI-MEHFIL RESTAURANT4-PAYTM.D14184553183@PTY-YESB0MCHUPI-105973420036-UPI        0000105973420036                  75                 NaN
380  06/06/25                              UPI-RATNADEEP SUPERMARKE-PAYTM-64400898@PTYS-YESB0PTMUPI-106018518510-GROCERIES        0000106018518510                  34                 NaN
381  08/06/25                     UPI-PVR LIMITED-PVRLIMITED.41451602@HDFCBANK-HDFC0MERUPI-106148397077-GENERATING DYNAMIC        0000106148397077                 500                 NaN
382  09/06/25                                                UPI-SUBHAN BAKERY-Q892807407@YBL-YESB0YBLUPI-106186409117-UPI        0000106186409117                 260                 NaN
383  09/06/25                                                UPI-SUBHAN BAKERY-Q892807407@YBL-YESB0YBLUPI-106186559788-UPI        0000106186559788                 140                 NaN
384  09/06/25                                                 UPI-SUBHAN BAKERY-Q13004202@YBL-YESB0YBLUPI-106186790969-UPI        0000106186790969                1550                 NaN
385  09/06/25                                         UPI-SRINIVASA KIRANA  G-Q551733819@YBL-YESB0YBLUPI-106192563204-TAPE        0000106192563204                  35                 NaN
386  09/06/25                                           UPI-SHIVAM SINGH-Q782998623@YBL-YESB0YBLUPI-106197577148-GROCERIES        0000106197577148                  80                 NaN
387  09/06/25                                           UPI-SHIVAM SINGH-Q782998623@YBL-YESB0YBLUPI-106197957663-GROCERIES        0000106197957663                  40                 NaN
388  10/06/25                                    UPI-A L M D VEGETABLES-Q151289246@YBL-YESB0YBLUPI-106228296948-VEGETABLES        0000106228296948                  50                 NaN
389  12/06/25                      UPI-MALABAR GOLD AND DIA-MALABARGOLDPVTL644506.RZP@RXAXIS-UTIB0000RZP-106340301336-GOLD        0000106340301336               10000                 NaN
390  12/06/25                                                 UPI-ZEPTO-ZEPTOONLINE@YBL-YESB0YBLUPI-106363511123-GROCERIES        0000106363511123                 199                 NaN
391  14/06/25                                     UPI-TACO BELL GOPALAN IN-PAYTM-3606629@PTYS-YESB0PTMUPI-106455332657-UPI        0000106455332657                 733                 NaN
392  14/06/25                                     UPI-TACO BELL GOPALAN IN-PAYTM-3606629@PTYS-YESB0PTMUPI-106456445874-UPI        0000106456445874                 162                 NaN
393  14/06/25                               UPI-LAKKEGOWDA S O LAKSH-PAYTMQR6GSL7X@PTYS-YESB0PTMUPI-106482836666-PAV BHAJI        0000106482836666                  90                 NaN
394  15/06/25                                               UPI-D B YOGA-Q670056786@YBL-YESB0YBLUPI-106499365469-GROCERIES        0000106499365469                  60                 NaN
395  15/06/25                       UPI-RAKSHIT SHIRISH RUDR-BLUEHEART1309@AXL-UTIB0004071-349473205102-PAYMENT FROM PHONE        0000349473205102                 NaN                 366
396  15/06/25                                UPI-MOHAMMED ASIF NADEEM-ASIFSABER3-1@OKAXIS-UTIB0001513-106531617838-CHARITY        0000106531617838                2000                 NaN
397  15/06/25                                                                          IB BILLPAY DR-HDFC97-361010XXXX8278        NBNERI4TNQGARSSU               14399                 NaN
398  17/06/25                          UPI-EXCITEL BROADBAND-CF.EXCITELBROADBAND@ICICI-ICIC0DC0099-106592314951-4007233004        0000106592314951             3538.82                 NaN
399  17/06/25                                                          CASH DEPOSIT-416021XXXXXX3309-WHITEFIELD  ITPL ROAD        0000000000001117                 NaN               10500
400  17/06/25                     UPI-MOHAMMED ASIF NADEEM-ASIFSABER3-1@OKAXIS-UTIB0001513-106643374455-CHARITY AND BAKRID        0000106643374455                1650                 NaN
401  20/06/25                                       UPI-BG RD GCIM CAFE 5-PAYTM-70217819@PTYS-YESB0PTMUPI-106796375893-UPI        0000106796375893                 750                 NaN
402  22/06/25                                  UPI-ARUNODAYA SERVICE ST-PAYTMQR5VC7KL@PTYS-YESB0PTMUPI-106890800639-PETROL        0000106890800639                 500                 NaN
403  23/06/25                          UPI-AYESHA THAHNIYATH SA-9945178600@YBL-HDFC0000365-597888203209-PAYMENT FROM PHONE        0000597888203209                 NaN                5000
404  23/06/25                          UPI-AYESHA THAHNIYATH SA-9945178600@YBL-HDFC0000365-727903710499-PAYMENT FROM PHONE        0000727903710499                 NaN                6000
405  23/06/25                            UPI-RELIANCE JIO INFOCOM-JIO@CITIBANK-CITI0RTGSMI-106911238497-JIO20BR000C7QHUQZ2        0000106911238497                 349                 NaN
406  24/06/25                                       UPI-A L M D VEGETABLES-Q461034913@YBL-YESB0YBLUPI-106963390905-VEGGIES        0000106963390905                  30                 NaN
407  24/06/25                                            UPI-RESHMA BANU-SYEDR5459@OKHDFCBANK-CNRB0000033-106970812136-UPI        0000106970812136                 288                 NaN
408  24/06/25                                   UPI-RAJESH M M-MMRAJESH985@YBL-CNRB0000000-166765288069-PAYMENT FROM PHONE        0000166765288069                 NaN                 280
409  24/06/25                                    UPI-DISTRICT-DISTRICTDINING.PAYU@ICICI-ICIC0DC0099-107001282039-UPIINTENT        0000107001282039                 350                 NaN
410  25/06/25                                       UPI-REHAN ULLA SHARIFF-Q865303082@YBL-YESB0YBLUPI-107014212871-CHICKEN        0000107014212871                 240                 NaN
411  25/06/25                               UPI-BMTC BUS KA01F9125-KA01F9125@CNRB-CNRB0000033-107018703289-PAY TO MERCHANT        0000107018703289                  40                 NaN
412  25/06/25                                         UPI-SHASHI KIRAN-SHASHI.YOURS-1@OKICICI-ICIC0000252-517682033660-UPI        0000517682033660                 NaN               11378
413  26/06/25                                           UPI-MOHAMMED   NAYAZ-NAYAZM507@AXL-KKBK0008078-107076875023-SHAADI        0000107076875023                1000                 NaN
414  26/06/25                                  UPI-AALURI SREENIVASULU-STYLISHSREENU70651@AXL-HDFC0003962-107082333483-CAB        0000107082333483                 134                 NaN
415  26/06/25                                       UPI-BP PETROL PUMP  BP B-Q06912905@YBL-YESB0YBLUPI-107102310920-PETROL        0000107102310920              500.21                 NaN
416  26/06/25                                    UPI-STRA AMBUR BIRYANI A-PAYTMQR61DPV3@PTYS-YESB0PTMUPI-107102515190-FOOD        0000107102515190                 100                 NaN
417  26/06/25                                    UPI-BYND COURTYARD LLP-POS.11313857@INDUS-INDB0MERCHA-107105423790-BURGER        0000107105423790                1418                 NaN
418  27/06/25                                                                            ME DC SI 416021XXXXXX3309 NETFLIX        0000517702509955                 649                 NaN
419  27/06/25                                                                              POS 416021XXXXXX3309 RETAIL  CC        0000517810015109                 139                 NaN
420  28/06/25                          UPI-MOHAMMED ZAINUL HUSS-8147039975@AXL-HDFC0000768-768231833358-PAYMENT FROM PHONE        0000768231833358                 NaN                 260
421  28/06/25                                                                              POS 416021XXXXXX3309 RETAIL  CC        0000517910000453                 259                 NaN
422  28/06/25                                 UPI-BIGGIES BURGER  MIRA-PAYTM.D11985849053@PTY-YESB0MCHUPI-107194857247-UPI        0000107194857247                 341                 NaN
423  29/06/25                                              UPI-SIDDIBAYI-Q543512556@YBL-YESB0YBLUPI-107243323034-PANI PURI        0000107243323034                  60                 NaN
424  29/06/25                                       UPI-A L M D VEGETABLES-Q447907354@YBL-YESB0YBLUPI-107251253765-VEGGIES        0000107251253765                 250                 NaN
425  30/06/25                                                                        POS 416021XXXXXX3309 HOME AFFAIRS ONL        0000518104837393             1426.01                 NaN
426  30/06/25                       UPI-RAKSHIT SHIRISH RUDR-BLUEHEART1309@AXL-UTIB0004071-669307887335-PAYMENT FROM PHONE        0000669307887335                 NaN               25000
427  30/06/25                                             IMPS-518111357923-MOHAMMED ADIL AHMED-SBIN-XXXXXXX9801-REPAYMENT        0000518111357923                8194                 NaN
428  30/06/25                          UPI-CRESCENT AL ZAM ZAM -GPAY-11240736419@OKBIZAXIS-UTIB0000553-107298618210-SNACKS        0000107298618210                 120                 NaN
429  01/07/25                                                                               INTEREST PAID TILL 30-JUN-2025         000000000000000                 NaN                1094
430  01/07/25                                                                                          SALARY FOR JUN-2025        0000506307222231                 NaN               87631
431  01/07/25                        UPI-SAYED SAHEED THAYULL-SAYEDSAHEED87@OKAXIS-CNRB0000033-107377711728-CHICKEN COUNTY        0000107377711728                1640                 NaN
432  01/07/25                                          UPI-RASHID AHMED-RASHID.ME19@OKICICI-BARB0VJVIJB-107377942369-METRO        0000107377942369                  50                 NaN
433  05/07/25                                       UPI-VENKATESH  KARIYAPPA-VKVK47348@OKSBI-SBIN0011283-107572676204-AUTO        0000107572676204                 250                 NaN
434  05/07/25                                         UPI-ARSHIYA SIDIQHA-Q107660923@YBL-YESB0YBLUPI-107578141683-PRINTOUT        0000107578141683                  10                 NaN
435  05/07/25                             UPI-SATHISH  GENERAL STO-9611618796@OKBIZAXIS-UTIB0000553-107585007853-GROCERIES        0000107585007853                  20                 NaN
436  06/07/25                                       UPI-ATTIBELE ELECTRONIC -EC1-EC-L05@ICICI-ICIC0DC0099-555318631939-UPI        0000555318631939                  40                 NaN
437  06/07/25                              UPI-TACO BELL ELECTRONIC-PAYTM-63926361@PTYS-YESB0PTMUPI-107655881724-TACO BELL        0000107655881724                 595                 NaN
438  06/07/25                                         UPI-RUDRESH B H-PAYTM.S11RV8C@PTY-YESB0MCHUPI-107661492856-MEDICINES        0000107661492856                 195                 NaN
439  09/07/25                                UPI-ZOMATO LIMITED-ZOMATO-ORDER@PTYBL-YESB0PTMUPI-172358843957-ZOMATO PAYMENT        0000172358843957                   1                 NaN
440  10/07/25                                       UPI-REHAN ULLA SHARIFF-Q276633299@YBL-YESB0YBLUPI-107848954279-CHICKEN        0000107848954279                 520                 NaN
441  10/07/25                                            UPI-MR SRIDHAR  R S-Q978322956@YBL-YESB0YBLUPI-107888246939-GANNA        0000107888246939                  90                 NaN
442  12/07/25                                          UPI-MR  C  RAJASEKAR-Q558622050@YBL-YESB0YBLUPI-107996575737-SNACKS        0000107996575737                  80                 NaN
443  13/07/25                         UPI-SWAGATH POORNIMA CIN-MAB.037347034120049@AXISBANK-UTIB0000100-108032862646-MOVIE        0000108032862646                 800                 NaN
444  13/07/25                                    UPI-BYND COURTYARD LLP-POS.11313857@INDUS-INDB0MERCHA-108041195546-BURGER        0000108041195546                2237                 NaN
445  13/07/25                  UPI-MALABAR CRYSTALS AND-MALABARCRYSTALSANDDIAMONDSPVTLTD@SBI-SBIN0000814-108049413114-GOLD        0000108049413114               10000                 NaN
446  13/07/25                       UPI-RAKSHIT SHIRISH RUDR-BLUEHEART1309@AXL-UTIB0004071-833016735104-PAYMENT FROM PHONE        0000833016735104                 NaN                2280
447  14/07/25                               UPI-CREDIT-CCPAY.95738963173004@ICICI-ICIC0DC0099-395453468961-CREDIT CARD PAY        0000395453468961                3280                 NaN
448  14/07/25                                                                          IB BILLPAY DR-HDFC97-361010XXXX8278        MB14222353645T21               25308                 NaN
449  15/07/25                          UPI-SACHIN KUMAR SAMOSA -GPAY-11242174866@OKBIZAXIS-UTIB0000553-108156017763-SNACKS        0000108156017763                  75                 NaN
450  15/07/25                                       UPI-TABREZ PASHA R-PTABREZ744@IBL-KKBK0008077-108160415725-DIO SERVICE        0000108160415725                2295                 NaN
451  17/07/25                        UPI-MANISH MEDICAL CENTE-VYAPAR.172720870674@HDFCBANK-HDFC0MERUPI-108258071205-SNACKS        0000108258071205                  10                 NaN
452  17/07/25                                        UPI-ANIL KUMAR N-PAYTMQROAVGVBBM6Z@PAYTM-YESB0PTMUPI-108265324064-UPI        0000108265324064                  20                 NaN
453  18/07/25                                       UPI-TRC JP NAGAR-PAYTMQR5D2ZXX@PTYS-YESB0PTMUPI-108285525947-BREAKFAST        0000108285525947                 585                 NaN
454  18/07/25                                       UPI-TRC JP NAGAR-PAYTMQR5D2ZXX@PTYS-YESB0PTMUPI-108285690480-BREAKFAST        0000108285690480                  45                 NaN
455  18/07/25                                             UPI-TRC JP NAGAR-PAYTMQR5D2ZXX@PTYS-YESB0PTMUPI-108286060486-UPI        0000108286060486                  40                 NaN
456  18/07/25                                       UPI-TRC JP NAGAR-PAYTMQR5D2ZXX@PTYS-YESB0PTMUPI-108286474653-BREAKFAST        0000108286474653                 110                 NaN
457  18/07/25      UPI-INDIAN RAILWAY CATER-INDIANRAILWAYCA848104.RZP@RXAIRTEL-AIRP0000011-108320899565-INDIANRAILWAYCATER        0000108320899565               791.8                 NaN
458  18/07/25      UPI-INDIAN RAILWAY CATER-INDIANRAILWAYCA848104.RZP@RXAIRTEL-AIRP0000011-519919076422-INDIANRAILWAYCATER        0000519919076422              1624.5                 NaN
459  19/07/25                           UPI-C N S FUEL PORT-PAYTMQR5DB27U@PTYS-YESB0PTMUPI-108360199441-CHAAN BHAIYA PETRO        0000108360199441                 500                 NaN
460  20/07/25                                               UPI-BHAGVAN DAS-Q839521050@YBL-YESB0YBLUPI-108420720303-SANCKS        0000108420720303                  20                 NaN
461  20/07/25                                           UPI-MEERAN MOHIDEEN P-Q502963710@YBL-YESB0YBLUPI-108420905920-EGGS        0000108420905920                  80                 NaN
462  21/07/25                            UPI-RELIANCE JIO INFOCOM-JIO@CITIBANK-CITI0RTGSMI-108461587438-JIO20BR000CI8C49C2        0000108461587438                 349                 NaN
463  21/07/25                          UPI-BANGALORE METRO RAIL-ENGLISH.BMRC.PAYU@INDUS-INDB0MERCHA-108477384135-UPIINTENT        0000108477384135                  30                 NaN
464  21/07/25                                            UPI-SATENDRA SINGH-Q279879290@YBL-YESB0YBLUPI-108479796172-SNACKS        0000108479796172                  80                 NaN
465  21/07/25                                                UPI-MD NAJIM-9155112586@PTSBI-IPOS0000001-108485312055-SAMOSA        0000108485312055                  30                 NaN
466  21/07/25           UPI-SEPHOOL UBAD SHAIKH-BHARATPE09912633730@YESBANKLTD-YESB0YESUPI-108495167786-PAY TO BHARATPE ME        0000108495167786                  20                 NaN
467  22/07/25                                            UPI-BAWARCHI 5-PAYTMQR57S0WI@PAYTM-YESB0PTMUPI-108525011024-LUNCH        0000108525011024                 630                 NaN
468  22/07/25                                        UPI-BHARAT ENTERPRISES-Q936409606@YBL-YESB0YBLUPI-108525271789-SWEETS        0000108525271789                 500                 NaN
469  22/07/25                                       UPI-TRIVENI PETROMART-PAYTM-68344038@PTYS-YESB0PTMUPI-108550462964-UPI        0000108550462964                 220                 NaN
470  23/07/25                                UPI-MEHFIL RESTAURANT AN-PAYTM-75028977@PTYS-YESB0PTMUPI-108579293037-OUTSIDE        0000108579293037                1150                 NaN
471  23/07/25                               UPI-MEHFIL RESTAURANT AN-PAYTM-74011146@PTYS-YESB0PTMUPI-108579426208-SHAWARMA        0000108579426208                 240                 NaN
472  23/07/25                                    UPI-MEHFIL RESTAURANT AN-PAYTM-74011146@PTYS-YESB0PTMUPI-108579623127-UPI        0000108579623127                 120                 NaN
473  23/07/25                                                  UPI-MEHFIL-PAYTM-74896912@PTYS-YESB0PTMUPI-108586067681-UPI        0000108586067681                 240                 NaN
474  23/07/25                                               UPI-IRCTC UTS-PAYTM-8796946@PTYBL-YESB0PTMUPI-108588815363-UPI        0000108588815363                  10                 NaN
475  23/07/25                                              UPI-SATEESH SINGH-9981676523@YBL-PUNB0268100-108596969647-WATER        0000108596969647                  20                 NaN
476  24/07/25                          UPI-BANGALORE METRO RAIL-ENGLISH.BMRC.PAYU@INDUS-INDB0MERCHA-108609632606-UPIINTENT        0000108609632606                  60                 NaN
477  24/07/25                                      UPI-SHANE ALAM-PAYTMQRCJY2037KMB@PAYTM-YESB0PTMUPI-108616036380-HAIRCUT        0000108616036380                 200                 NaN
478  25/07/25                                          UPI-MADAN H S-7483681224@IBL-KARB0000062-108672782820-ABBU FLIPKART        0000108672782820                1126                 NaN
479  25/07/25                                   UPI-LIC OF INDIA DEPOSIT-PAYTM-64842669@PTYBL-YESB0PTMUPI-108706185840-UPI        0000108706185840               50000                 NaN
480  26/07/25                                       UPI-MR FARIS ADANGAM PUR-Q459006884@YBL-YESB0YBLUPI-108736361464-LUNCH        0000108736361464                 155                 NaN
481  26/07/25                                       UPI-DIPARGHYA  BARMAN-DIPARGHYABARMAN@YBL-SBIN0000044-108736531137-UPI        0000108736531137                  20                 NaN
482  26/07/25                             UPI-ABHISHEK PROPBUILD P-63280095591.PAYSWIFF@INDUS-INDB0MERCHA-108761540576-UPI        0000108761540576                  60                 NaN
483  27/07/25                                                                            ME DC SI 416021XXXXXX3309 NETFLIX        0000520702456998                 649                 NaN
484  27/07/25                                       UPI-BP PETROL PUMP  BP B-Q43070506@YBL-YESB0YBLUPI-108812827030-PETROL        0000108812827030                 530                 NaN
485  28/07/25                                                    .DC INTL POS TXN MARKUP+ST 300625 300625-MIR2620042422367        MIR2620042422367               58.89                 NaN
486  30/07/25                                 UPI-TUSHAR ASHOK UPARI-TUSHARUPARI@OKSBI-SBIN0005536-108969977204-MOOOBIEEEE        0000108969977204                 536                 NaN
487  01/08/25                                                                                          SALARY FOR JUL-2025        0000507319001244                 NaN               86581
488  01/08/25                       UPI-RAKSHIT SHIRISH RUDR-BLUEHEART1309@AXL-UTIB0004071-811534862968-PAYMENT FROM PHONE        0000811534862968                 NaN               10500
489  02/08/25                                UPI-CINEPOLIS INDIA PRIV-AMZNPLCIN000280@RAPL-RATN000RAPL-109081821437-SNACKS        0000109081821437                 330                 NaN
490  02/08/25                                     UPI-AMAZON INDIA-AMAZON@RAPL-RATN000RAPL-109107732812-YOU ARE PAYING FOR        0000109107732812                  99                 NaN
491  02/08/25                                      UPI-MEERAN MOHIDEEN P-Q502963710@YBL-YESB0YBLUPI-109113169209-GROCERIES        0000109113169209                  45                 NaN
492  02/08/25                            UPI-CHICKEN COUNTY RESTA-PAYTMQR3K3HAP36ZM@PAYTM-YESB0PTMUPI-109140138148-OUTSIDE        0000109140138148                 504                 NaN
493  03/08/25                                              UPI-AKBAR-PAYTMQR68DEGS@PTYS-YESB0PTMUPI-109156342913-GROCERIES        0000109156342913                  20                 NaN
494  03/08/25                                       UPI-A L M D VEGETABLES-Q151289246@YBL-YESB0YBLUPI-109169857623-VEGGIES        0000109169857623                  20                 NaN
495  03/08/25                             UPI-CHANDAN KUMAR S O MO-CHANDANKUMAR8801841@YBL-PUNB0MBGB06-109183738305-SNACKS        0000109183738305                  40                 NaN
496  03/08/25                                  UPI-BP PETROL PUMP  PETH-Q843876444@YBL-YESB0YBLUPI-109190225266-CAR PETROL        0000109190225266                2200                 NaN
497  03/08/25                            UPI-EVERSUB INDIA PRIVAT-AMZNPLEVERSUB10174@RAPL-RATN000RAPL-109198391342-OUTSIDE        0000109198391342                 548                 NaN
498  03/08/25                                            UPI-TAMANNA KHAN-PISHO5886@OKICICI-DBSS0IN0811-109200053892-CANDY        0000109200053892                 125                 NaN
499  03/08/25         UPI-LULUINTERNATIONALSHO-BHARATPE907720034339@YESBANKLTD-YESB0YESUPI-109200601058-PAY TO LULUINTERNA        0000109200601058                  80                 NaN
500  04/08/25                                              UPI-TAMANNA KHAN-PISHO5886@OKICICI-DBSS0IN0811-521669245756-UPI        0000521669245756                 NaN                 125
501  07/08/25                                       UPI-NAS HOSPITALITY INC-Q555170839@YBL-YESB0YBLUPI-109426527360-SNACKS        0000109426527360                 220                 NaN
502  08/08/25                                      UPI-EMPIRE RESTAURANT  B-Q854661526@YBL-YESB0YBLUPI-109429394778-DINNER        0000109429394778                 600                 NaN
503  08/08/25                                             UPI-FOOD COURT-BHQR.2972691A@SIB-SIBL0008097-109444567224-SNACKS        0000109444567224                 210                 NaN
504  08/08/25                                              UPI-MANJUNATH  B G-8277132641@IBL-SBIN0000950-109444719036-FOOD        0000109444719036                  60                 NaN
505  08/08/25                                   UPI-SAHANA ENTERPRISES-PAYTMQR6K2UUJ@PTYS-YESB0PTMUPI-109447214020-PARKING        0000109447214020                  40                 NaN
506  08/08/25                              UPI-BALAJI DEPARTMENTAL -PAYTMQR66A0XJ@PTYS-YESB0PTMUPI-109452163929-HOME STUFF        0000109452163929                 307                 NaN
507  08/08/25                            UPI-HP BALA STATIONARY-9036102833-3@OKBIZAXIS-UTIB0000553-109452676915-STATIONARY        0000109452676915                  47                 NaN
508  08/08/25                                    UPI-JETARAM-GPAY-11244398623@OKBIZAXIS-UTIB0000553-109460443841-GROCERIES        0000109460443841                  50                 NaN
509  08/08/25                                           UPI-WASEEM  PASHA-Q770215591@YBL-YESB0YBLUPI-109462775768-PUNCTURE        0000109462775768                  20                 NaN
510  08/08/25                                            UPI-VENKATESH R-FRIENDVENKI@YBL-CNRB0000033-109480569107-MEDICINE        0000109480569107                 180                 NaN
511  09/08/25                                            UPI-VENKATESH R-FRIENDVENKI@YBL-CNRB0000033-109505767889-MEDICALS        0000109505767889                 130                 NaN
512  09/08/25                            UPI-M K AHMED SUPER MARK-PAYTM.D75010777@PTA-UTIB0000022-109508723555-SUPERMARKET        0000109508723555                 500                 NaN
513  09/08/25                                                    UPI-GONIYAPPA-Q950389436@YBL-YESB0YBLUPI-109538886990-UPI        0000109538886990                  20                 NaN
514  09/08/25                                         UPI-VARADARAJU D A-8310027928-TD9D@IBL-KKBK0000958-109543081749-FUEL        0000109543081749                2000                 NaN
515  10/08/25                            UPI-MRS UMERA  KHALEEL-9845511780@YBL-CBIN0281200-140279523656-PAYMENT FROM PHONE        0000140279523656                 NaN                 200
516  10/08/25                                  UPI-LAKKEGOWDA S O LAKSH-PAYTMQR6BSL2X@PTYS-YESB0PTMUPI-109600902963-DINNER        0000109600902963                  70                 NaN
517  10/08/25                                              UPI-MAHADEVI-PAYTMQR6CRD9C@PTYS-YESB0PTMUPI-109601511410-DINNER        0000109601511410                 520                 NaN
518  11/08/25                   UPI-QUEST RETAIL PRIVATE-AMZN-D43DT2WDCFU@YAPL-YESB0APLUPI-109620855754-GIFT FOR FARHEEN D        0000109620855754                 900                 NaN
519  12/08/25                                    UPI-IMPERIAL JAYANAGAR-PAYTMQR617VR9@PTYS-YESB0PTMUPI-109696756062-SNACKS        0000109696756062                 156                 NaN
520  13/08/25                      UPI-MALABAR CRYSTALS  DI-MALABARGOLDANDD141865.RZP@RXAXIS-UTIB0000RZP-109755582271-GOLD        0000109755582271               10000                 NaN
521  13/08/25      UPI-MALABAR GOLD AND DIA-MALABARGOLDANDD858422.RZP@RXAIRTEL-AIRP0000011-109755680922-MALABARGOLDANDDIAM        0000109755680922               10000                 NaN
522  13/08/25                                       UPI-A L M D VEGETABLES-Q126626240@YBL-YESB0YBLUPI-109762130915-VEGGIES        0000109762130915                  15                 NaN
523  13/08/25                                               UPI-D B YOGA-Q670056786@YBL-YESB0YBLUPI-109762548087-GROCERIES        0000109762548087                  75                 NaN
524  13/08/25                                   UPI-GOOGLE PLAY-PLAYSTORE@AXISBANK-UTIB0000553-562620832255-MANDATEEXECUTE        0000562620832255                  29                 NaN
525  13/08/25                                            IMPS-522522392070-MOHAMMED ASIF NADEEM SABER-ICIC-XXXXXXXX8214-HL        0000522522392070              200000                 NaN
526  14/08/25                                                    UPI-RAJA A-Q274064277@YBL-YESB0YBLUPI-109819464042-FRUITS        0000109819464042                  50                 NaN
527  14/08/25                                                UPI-AJNAS K-PAYTM.S1IQZGF@PTY-YESB0MCHUPI-109819702699-SNACKS        0000109819702699                  30                 NaN
528  14/08/25               UPI-TACO BELL GOPALAN IN-PAYTMQR2810050501011OXG03AMUGMF@PAYTM-YESB0PTMUPI-109825340879-DINNER        0000109825340879                 844                 NaN
529  14/08/25                                               UPI-RAJESH B R-9632765833@IBL-KKBK0008035-559276666401-PARKING        0000559276666401                  20                 NaN
530  15/08/25                            UPI-FASHION FACTORY BENG-2425064238923-01@JIOPAY-JIOP0000001-109856103301-CLOTHES        0000109856103301                2797                 NaN
531  15/08/25                               UPI-BALAJI DEPARTMENTAL -PAYTMQR66A0XJ@PTYS-YESB0PTMUPI-109860007511-GROCERIES        0000109860007511                 300                 NaN
532  15/08/25                                  UPI-PNABDUL RAHMAN QURES-PAYTMQR68ZVLH@PTYS-YESB0PTMUPI-109860900786-SHEEKH        0000109860900786                 120                 NaN
